{
  "_format": "hh-sol-artifact-1",
  "contractName": "MockGameNFT",
  "sourceName": "contracts/MockGameNFT.sol",
  "abi": [
    {
      "inputs": [
        {
          "internalType": "string",
          "name": "name",
          "type": "string"
        },
        {
          "internalType": "string",
          "name": "symbol",
          "type": "string"
        }
      ],
      "stateMutability": "nonpayable",
      "type": "constructor"
    },
    {
      "inputs": [
        {
          "internalType": "address",
          "name": "sender",
          "type": "address"
        },
        {
          "internalType": "uint256",
          "name": "tokenId",
          "type": "uint256"
        },
        {
          "internalType": "address",
          "name": "owner",
          "type": "address"
        }
      ],
      "name": "ERC721IncorrectOwner",
      "type": "error"
    },
    {
      "inputs": [
        {
          "internalType": "address",
          "name": "operator",
          "type": "address"
        },
        {
          "internalType": "uint256",
          "name": "tokenId",
          "type": "uint256"
        }
      ],
      "name": "ERC721InsufficientApproval",
      "type": "error"
    },
    {
      "inputs": [
        {
          "internalType": "address",
          "name": "approver",
          "type": "address"
        }
      ],
      "name": "ERC721InvalidApprover",
      "type": "error"
    },
    {
      "inputs": [
        {
          "internalType": "address",
          "name": "operator",
          "type": "address"
        }
      ],
      "name": "ERC721InvalidOperator",
      "type": "error"
    },
    {
      "inputs": [
        {
          "internalType": "address",
          "name": "owner",
          "type": "address"
        }
      ],
      "name": "ERC721InvalidOwner",
      "type": "error"
    },
    {
      "inputs": [
        {
          "internalType": "address",
          "name": "receiver",
          "type": "address"
        }
      ],
      "name": "ERC721InvalidReceiver",
      "type": "error"
    },
    {
      "inputs": [
        {
          "internalType": "address",
          "name": "sender",
          "type": "address"
        }
      ],
      "name": "ERC721InvalidSender",
      "type": "error"
    },
    {
      "inputs": [
        {
          "internalType": "uint256",
          "name": "tokenId",
          "type": "uint256"
        }
      ],
      "name": "ERC721NonexistentToken",
      "type": "error"
    },
    {
      "inputs": [
        {
          "internalType": "address",
          "name": "owner",
          "type": "address"
        }
      ],
      "name": "OwnableInvalidOwner",
      "type": "error"
    },
    {
      "inputs": [
        {
          "internalType": "address",
          "name": "account",
          "type": "address"
        }
      ],
      "name": "OwnableUnauthorizedAccount",
      "type": "error"
    },
    {
      "anonymous": false,
      "inputs": [
        {
          "indexed": true,
          "internalType": "address",
          "name": "owner",
          "type": "address"
        },
        {
          "indexed": true,
          "internalType": "address",
          "name": "approved",
          "type": "address"
        },
        {
          "indexed": true,
          "internalType": "uint256",
          "name": "tokenId",
          "type": "uint256"
        }
      ],
      "name": "Approval",
      "type": "event"
    },
    {
      "anonymous": false,
      "inputs": [
        {
          "indexed": true,
          "internalType": "address",
          "name": "owner",
          "type": "address"
        },
        {
          "indexed": true,
          "internalType": "address",
          "name": "operator",
          "type": "address"
        },
        {
          "indexed": false,
          "internalType": "bool",
          "name": "approved",
          "type": "bool"
        }
      ],
      "name": "ApprovalForAll",
      "type": "event"
    },
    {
      "anonymous": false,
      "inputs": [
        {
          "indexed": true,
          "internalType": "address",
          "name": "previousOwner",
          "type": "address"
        },
        {
          "indexed": true,
          "internalType": "address",
          "name": "newOwner",
          "type": "address"
        }
      ],
      "name": "OwnershipTransferred",
      "type": "event"
    },
    {
      "anonymous": false,
      "inputs": [
        {
          "indexed": true,
          "internalType": "address",
          "name": "from",
          "type": "address"
        },
        {
          "indexed": true,
          "internalType": "address",
          "name": "to",
          "type": "address"
        },
        {
          "indexed": true,
          "internalType": "uint256",
          "name": "tokenId",
          "type": "uint256"
        }
      ],
      "name": "Transfer",
      "type": "event"
    },
    {
      "inputs": [
        {
          "internalType": "address",
          "name": "to",
          "type": "address"
        },
        {
          "internalType": "uint256",
          "name": "tokenId",
          "type": "uint256"
        }
      ],
      "name": "approve",
      "outputs": [],
      "stateMutability": "nonpayable",
      "type": "function"
    },
    {
      "inputs": [
        {
          "internalType": "address",
          "name": "owner",
          "type": "address"
        }
      ],
      "name": "balanceOf",
      "outputs": [
        {
          "internalType": "uint256",
          "name": "",
          "type": "uint256"
        }
      ],
      "stateMutability": "view",
      "type": "function"
    },
    {
      "inputs": [
        {
          "internalType": "uint256",
          "name": "tokenId",
          "type": "uint256"
        }
      ],
      "name": "exists",
      "outputs": [
        {
          "internalType": "bool",
          "name": "",
          "type": "bool"
        }
      ],
      "stateMutability": "view",
      "type": "function"
    },
    {
      "inputs": [
        {
          "internalType": "uint256",
          "name": "tokenId",
          "type": "uint256"
        }
      ],
      "name": "getApproved",
      "outputs": [
        {
          "internalType": "address",
          "name": "",
          "type": "address"
        }
      ],
      "stateMutability": "view",
      "type": "function"
    },
    {
      "inputs": [
        {
          "internalType": "address",
          "name": "owner",
          "type": "address"
        },
        {
          "internalType": "address",
          "name": "operator",
          "type": "address"
        }
      ],
      "name": "isApprovedForAll",
      "outputs": [
        {
          "internalType": "bool",
          "name": "",
          "type": "bool"
        }
      ],
      "stateMutability": "view",
      "type": "function"
    },
    {
      "inputs": [
        {
          "internalType": "address",
          "name": "to",
          "type": "address"
        },
        {
          "internalType": "uint256",
          "name": "tokenId",
          "type": "uint256"
        }
      ],
      "name": "mint",
      "outputs": [],
      "stateMutability": "nonpayable",
      "type": "function"
    },
    {
      "inputs": [],
      "name": "name",
      "outputs": [
        {
          "internalType": "string",
          "name": "",
          "type": "string"
        }
      ],
      "stateMutability": "view",
      "type": "function"
    },
    {
      "inputs": [],
      "name": "owner",
      "outputs": [
        {
          "internalType": "address",
          "name": "",
          "type": "address"
        }
      ],
      "stateMutability": "view",
      "type": "function"
    },
    {
      "inputs": [
        {
          "internalType": "uint256",
          "name": "tokenId",
          "type": "uint256"
        }
      ],
      "name": "ownerOf",
      "outputs": [
        {
          "internalType": "address",
          "name": "",
          "type": "address"
        }
      ],
      "stateMutability": "view",
      "type": "function"
    },
    {
      "inputs": [],
      "name": "renounceOwnership",
      "outputs": [],
      "stateMutability": "nonpayable",
      "type": "function"
    },
    {
      "inputs": [
        {
          "internalType": "address",
          "name": "to",
          "type": "address"
        }
      ],
      "name": "safeMint",
      "outputs": [],
      "stateMutability": "nonpayable",
      "type": "function"
    },
    {
      "inputs": [
        {
          "internalType": "address",
          "name": "from",
          "type": "address"
        },
        {
          "internalType": "address",
          "name": "to",
          "type": "address"
        },
        {
          "internalType": "uint256",
          "name": "tokenId",
          "type": "uint256"
        }
      ],
      "name": "safeTransferFrom",
      "outputs": [],
      "stateMutability": "nonpayable",
      "type": "function"
    },
    {
      "inputs": [
        {
          "internalType": "address",
          "name": "from",
          "type": "address"
        },
        {
          "internalType": "address",
          "name": "to",
          "type": "address"
        },
        {
          "internalType": "uint256",
          "name": "tokenId",
          "type": "uint256"
        },
        {
          "internalType": "bytes",
          "name": "data",
          "type": "bytes"
        }
      ],
      "name": "safeTransferFrom",
      "outputs": [],
      "stateMutability": "nonpayable",
      "type": "function"
    },
    {
      "inputs": [
        {
          "internalType": "address",
          "name": "operator",
          "type": "address"
        },
        {
          "internalType": "bool",
          "name": "approved",
          "type": "bool"
        }
      ],
      "name": "setApprovalForAll",
      "outputs": [],
      "stateMutability": "nonpayable",
      "type": "function"
    },
    {
      "inputs": [
        {
          "internalType": "bytes4",
          "name": "interfaceId",
          "type": "bytes4"
        }
      ],
      "name": "supportsInterface",
      "outputs": [
        {
          "internalType": "bool",
          "name": "",
          "type": "bool"
        }
      ],
      "stateMutability": "view",
      "type": "function"
    },
    {
      "inputs": [],
      "name": "symbol",
      "outputs": [
        {
          "internalType": "string",
          "name": "",
          "type": "string"
        }
      ],
      "stateMutability": "view",
      "type": "function"
    },
    {
      "inputs": [
        {
          "internalType": "uint256",
          "name": "tokenId",
          "type": "uint256"
        }
      ],
      "name": "tokenURI",
      "outputs": [
        {
          "internalType": "string",
          "name": "",
          "type": "string"
        }
      ],
      "stateMutability": "view",
      "type": "function"
    },
    {
      "inputs": [
        {
          "internalType": "address",
          "name": "from",
          "type": "address"
        },
        {
          "internalType": "address",
          "name": "to",
          "type": "address"
        },
        {
          "internalType": "uint256",
          "name": "tokenId",
          "type": "uint256"
        }
      ],
      "name": "transferFrom",
      "outputs": [],
      "stateMutability": "nonpayable",
      "type": "function"
    },
    {
      "inputs": [
        {
          "internalType": "address",
          "name": "newOwner",
          "type": "address"
        }
      ],
      "name": "transferOwnership",
      "outputs": [],
      "stateMutability": "nonpayable",
      "type": "function"
    }
  ],
  "bytecode": "0x60806040523480156200001157600080fd5b506040516200186c3803806200186c8339810160408190526200003491620001b1565b3382826000620000458382620002aa565b506001620000548282620002aa565b5050506001600160a01b0381166200008657604051631e4fbdf760e01b81526000600482015260240160405180910390fd5b62000091816200009a565b50505062000376565b600680546001600160a01b038381166001600160a01b0319831681179093556040519116919082907f8be0079c531659141344cd1fd0a4f28419497f9722a3daafe3b4186f6b6457e090600090a35050565b634e487b7160e01b600052604160045260246000fd5b600082601f8301126200011457600080fd5b81516001600160401b0380821115620001315762000131620000ec565b604051601f8301601f19908116603f011681019082821181831017156200015c576200015c620000ec565b816040528381526020925086838588010111156200017957600080fd5b600091505b838210156200019d57858201830151818301840152908201906200017e565b600093810190920192909252949350505050565b60008060408385031215620001c557600080fd5b82516001600160401b0380821115620001dd57600080fd5b620001eb8683870162000102565b935060208501519150808211156200020257600080fd5b50620002118582860162000102565b9150509250929050565b600181811c908216806200023057607f821691505b6020821081036200025157634e487b7160e01b600052602260045260246000fd5b50919050565b601f821115620002a557600081815260208120601f850160051c81016020861015620002805750805b601f850160051c820191505b81811015620002a1578281556001016200028c565b5050505b505050565b81516001600160401b03811115620002c657620002c6620000ec565b620002de81620002d784546200021b565b8462000257565b602080601f831160018114620003165760008415620002fd5750858301515b600019600386901b1c1916600185901b178555620002a1565b600085815260208120601f198616915b82811015620003475788860151825594840194600190910190840162000326565b5085821015620003665787850151600019600388901b60f8161c191681555b5050505050600190811b01905550565b6114e680620003866000396000f3fe608060405234801561001057600080fd5b50600436106101215760003560e01c80636352211e116100ad578063a22cb46511610071578063a22cb4651461026f578063b88d4fde14610282578063c87b56dd14610295578063e985e9c5146102a8578063f2fde38b146102bb57600080fd5b80636352211e1461021a57806370a082311461022d578063715018a61461024e5780638da5cb5b1461025657806395d89b411461026757600080fd5b806323b872dd116100f457806323b872dd146101a357806340c10f19146101b657806340d097c3146101c957806342842e0e146101dc5780634f558e79146101ef57600080fd5b806301ffc9a71461012657806306fdde031461014e578063081812fc14610163578063095ea7b31461018e575b600080fd5b610139610134366004610f5d565b6102ce565b60405190151581526020015b60405180910390f35b610156610320565b6040516101459190610fd1565b610176610171366004610fe4565b6103b2565b6040516001600160a01b039091168152602001610145565b6101a161019c366004611019565b6103db565b005b6101a16101b1366004611043565b6103ea565b6101a16101c4366004611019565b61047a565b6101a16101d736600461107f565b61048c565b6101a16101ea366004611043565b6104ad565b6101396101fd366004610fe4565b6000908152600260205260409020546001600160a01b0316151590565b610176610228366004610fe4565b6104cd565b61024061023b36600461107f565b6104d8565b604051908152602001610145565b6101a1610520565b6006546001600160a01b0316610176565b610156610534565b6101a161027d36600461109a565b610543565b6101a16102903660046110ec565b61054e565b6101566102a3366004610fe4565b610566565b6101396102b63660046111c8565b61061c565b6101a16102c936600461107f565b61064a565b60006001600160e01b031982166380ac58cd60e01b14806102ff57506001600160e01b03198216635b5e139f60e01b145b8061031a57506301ffc9a760e01b6001600160e01b03198316145b92915050565b60606000805461032f906111fb565b80601f016020809104026020016040519081016040528092919081815260200182805461035b906111fb565b80156103a85780601f1061037d576101008083540402835291602001916103a8565b820191906000526020600020905b81548152906001019060200180831161038b57829003601f168201915b5050505050905090565b60006103bd82610688565b506000828152600460205260409020546001600160a01b031661031a565b6103e68282336106c1565b5050565b6001600160a01b03821661041957604051633250574960e11b8152600060048201526024015b60405180910390fd5b60006104268383336106ce565b9050836001600160a01b0316816001600160a01b031614610474576040516364283d7b60e01b81526001600160a01b0380861660048301526024820184905282166044820152606401610410565b50505050565b6104826107c7565b6103e682826107f4565b600780546000918261049d8361124b565b9190505590506103e682826107f4565b6104c88383836040518060200160405280600081525061054e565b505050565b600061031a82610688565b60006001600160a01b038216610504576040516322718ad960e21b815260006004820152602401610410565b506001600160a01b031660009081526003602052604090205490565b6105286107c7565b610532600061080e565b565b60606001805461032f906111fb565b6103e6338383610860565b6105598484846103ea565b61047433858585856108ff565b60606000610573836104cd565b6001600160a01b0316036105c05760405162461bcd60e51b8152602060048201526014602482015273151bdad95b88191bd95cc81b9bdd08195e1a5cdd60621b6044820152606401610410565b60006105f26105ce84610a2a565b6040516020016105de9190611264565b604051602081830303815290604052610abd565b9050806040516020016106059190611385565b604051602081830303815290604052915050919050565b6001600160a01b03918216600090815260056020908152604080832093909416825291909152205460ff1690565b6106526107c7565b6001600160a01b03811661067c57604051631e4fbdf760e01b815260006004820152602401610410565b6106858161080e565b50565b6000818152600260205260408120546001600160a01b03168061031a57604051637e27328960e01b815260048101849052602401610410565b6104c88383836001610c22565b6000828152600260205260408120546001600160a01b03908116908316156106fb576106fb818486610d28565b6001600160a01b0381161561073957610718600085600080610c22565b6001600160a01b038116600090815260036020526040902080546000190190555b6001600160a01b03851615610768576001600160a01b0385166000908152600360205260409020805460010190555b60008481526002602052604080822080546001600160a01b0319166001600160a01b0389811691821790925591518793918516917fddf252ad1be2c89b69c2b068fc378daa952ba7f163c4a11628f55a4df523b3ef91a4949350505050565b6006546001600160a01b031633146105325760405163118cdaa760e01b8152336004820152602401610410565b6103e6828260405180602001604052806000815250610d8c565b600680546001600160a01b038381166001600160a01b0319831681179093556040519116919082907f8be0079c531659141344cd1fd0a4f28419497f9722a3daafe3b4186f6b6457e090600090a35050565b6001600160a01b03821661089257604051630b61174360e31b81526001600160a01b0383166004820152602401610410565b6001600160a01b03838116600081815260056020908152604080832094871680845294825291829020805460ff191686151590811790915591519182527f17307eab39ab6107e8899845ad3d59bd9653f200f220920489ca2b5937696c31910160405180910390a3505050565b6001600160a01b0383163b15610a2357604051630a85bd0160e11b81526001600160a01b0384169063150b7a02906109419088908890879087906004016113ca565b6020604051808303816000875af192505050801561097c575060408051601f3d908101601f1916820190925261097991810190611407565b60015b6109e5573d8080156109aa576040519150601f19603f3d011682016040523d82523d6000602084013e6109af565b606091505b5080516000036109dd57604051633250574960e11b81526001600160a01b0385166004820152602401610410565b805181602001fd5b6001600160e01b03198116630a85bd0160e11b14610a2157604051633250574960e11b81526001600160a01b0385166004820152602401610410565b505b5050505050565b60606000610a3783610da4565b600101905060008167ffffffffffffffff811115610a5757610a576110d6565b6040519080825280601f01601f191660200182016040528015610a81576020820181803683370190505b5090508181016020015b600019016f181899199a1a9b1b9c1cb0b131b232b360811b600a86061a8153600a8504945084610a8b57509392505050565b60608151600003610adc57505060408051602081019091526000815290565b60006040518060600160405280604081526020016114716040913990506000600384516002610b0b9190611424565b610b159190611437565b610b20906004611459565b90506000610b2f826020611424565b67ffffffffffffffff811115610b4757610b476110d6565b6040519080825280601f01601f191660200182016040528015610b71576020820181803683370190505b509050818152600183018586518101602084015b81831015610bdd576003830192508251603f8160121c168501518253600182019150603f81600c1c168501518253600182019150603f8160061c168501518253600182019150603f8116850151825350600101610b85565b600389510660018114610bf75760028114610c0857610c14565b613d3d60f01b600119830152610c14565b603d60f81b6000198301525b509398975050505050505050565b8080610c3657506001600160a01b03821615155b15610cf8576000610c4684610688565b90506001600160a01b03831615801590610c725750826001600160a01b0316816001600160a01b031614155b8015610c855750610c83818461061c565b155b15610cae5760405163a9fbf51f60e01b81526001600160a01b0384166004820152602401610410565b8115610cf65783856001600160a01b0316826001600160a01b03167f8c5be1e5ebec7d5bd14f71427d1e84f3dd0314c0f7b2291e5b200ac8c7c3b92560405160405180910390a45b505b5050600090815260046020526040902080546001600160a01b0319166001600160a01b0392909216919091179055565b610d33838383610e7c565b6104c8576001600160a01b038316610d6157604051637e27328960e01b815260048101829052602401610410565b60405163177e802f60e01b81526001600160a01b038316600482015260248101829052604401610410565b610d968383610ee2565b6104c83360008585856108ff565b60008072184f03e93ff9f4daa797ed6e38ed64bf6a1f0160401b8310610de35772184f03e93ff9f4daa797ed6e38ed64bf6a1f0160401b830492506040015b6d04ee2d6d415b85acef81000000008310610e0f576d04ee2d6d415b85acef8100000000830492506020015b662386f26fc100008310610e2d57662386f26fc10000830492506010015b6305f5e1008310610e45576305f5e100830492506008015b6127108310610e5957612710830492506004015b60648310610e6b576064830492506002015b600a831061031a5760010192915050565b60006001600160a01b03831615801590610eda5750826001600160a01b0316846001600160a01b03161480610eb65750610eb6848461061c565b80610eda57506000828152600460205260409020546001600160a01b038481169116145b949350505050565b6001600160a01b038216610f0c57604051633250574960e11b815260006004820152602401610410565b6000610f1a838360006106ce565b90506001600160a01b038116156104c8576040516339e3563760e11b815260006004820152602401610410565b6001600160e01b03198116811461068557600080fd5b600060208284031215610f6f57600080fd5b8135610f7a81610f47565b9392505050565b60005b83811015610f9c578181015183820152602001610f84565b50506000910152565b60008151808452610fbd816020860160208601610f81565b601f01601f19169290920160200192915050565b602081526000610f7a6020830184610fa5565b600060208284031215610ff657600080fd5b5035919050565b80356001600160a01b038116811461101457600080fd5b919050565b6000806040838503121561102c57600080fd5b61103583610ffd565b946020939093013593505050565b60008060006060848603121561105857600080fd5b61106184610ffd565b925061106f60208501610ffd565b9150604084013590509250925092565b60006020828403121561109157600080fd5b610f7a82610ffd565b600080604083850312156110ad57600080fd5b6110b683610ffd565b9150602083013580151581146110cb57600080fd5b809150509250929050565b634e487b7160e01b600052604160045260246000fd5b6000806000806080858703121561110257600080fd5b61110b85610ffd565b935061111960208601610ffd565b925060408501359150606085013567ffffffffffffffff8082111561113d57600080fd5b818701915087601f83011261115157600080fd5b813581811115611163576111636110d6565b604051601f8201601f19908116603f0116810190838211818310171561118b5761118b6110d6565b816040528281528a60208487010111156111a457600080fd5b82602086016020830137600060208483010152809550505050505092959194509250565b600080604083850312156111db57600080fd5b6111e483610ffd565b91506111f260208401610ffd565b90509250929050565b600181811c9082168061120f57607f821691505b60208210810361122f57634e487b7160e01b600052602260045260246000fd5b50919050565b634e487b7160e01b600052601160045260246000fd5b60006001820161125d5761125d611235565b5060010190565b7f7b226e616d65223a2022546573742047616d65204e465420230000000000000081526000825161129c816019850160208701610f81565b7f222c20226465736372697074696f6e223a202241206d6f636b2047616d65466960199390910192830152507f204e465420666f722074657374696e67222c2022696d616765223a202269706660398201527f733a2f2f516d54657374496d616765222c202261747472696275746573223a2060598201527f5b7b2274726169745f74797065223a20224c6576656c222c202276616c75652260798201527f3a20223530227d2c207b2274726169745f74797065223a2022526172697479226099820152732c202276616c7565223a202245706963227d5d7d60601b60b982015260cd01919050565b7f646174613a6170706c69636174696f6e2f6a736f6e3b6261736536342c0000008152600082516113bd81601d850160208701610f81565b91909101601d0192915050565b6001600160a01b03858116825284166020820152604081018390526080606082018190526000906113fd90830184610fa5565b9695505050505050565b60006020828403121561141957600080fd5b8151610f7a81610f47565b8082018082111561031a5761031a611235565b60008261145457634e487b7160e01b600052601260045260246000fd5b500490565b808202811582820484141761031a5761031a61123556fe4142434445464748494a4b4c4d4e4f505152535455565758595a6162636465666768696a6b6c6d6e6f707172737475767778797a303132333435363738392b2fa2646970667358221220f4002eddcaf724dfa0ad53ffac3d096ebf9389c6aae2cdcd140cc0218117dfa964736f6c63430008150033",
  "linkReferences": {},
  "deployedLinkReferences": {}
}