{
  "_format": "hh-sol-artifact-1",
  "contractName": "GameFiOracleV3",
  "sourceName": "contracts/GameFiOracleV3.sol",
  "abi": [
    {
      "inputs": [],
      "stateMutability": "nonpayable",
      "type": "constructor"
    },
    {
      "inputs": [
        {
          "internalType": "address",
          "name": "owner",
          "type": "address"
        }
      ],
      "name": "OwnableInvalidOwner",
      "type": "error"
    },
    {
      "inputs": [
        {
          "internalType": "address",
          "name": "account",
          "type": "address"
        }
      ],
      "name": "OwnableUnauthorizedAccount",
      "type": "error"
    },
    {
      "inputs": [],
      "name": "ReentrancyGuardReentrantCall",
      "type": "error"
    },
    {
      "anonymous": false,
      "inputs": [
        {
          "indexed": true,
          "internalType": "address",
          "name": "collection",
          "type": "address"
        },
        {
          "indexed": false,
          "internalType": "uint256",
          "name": "volume",
          "type": "uint256"
        },
        {
          "indexed": false,
          "internalType": "uint256",
          "name": "holders",
          "type": "uint256"
        }
      ],
      "name": "CollectionMetricsUpdated",
      "type": "event"
    },
    {
      "anonymous": false,
      "inputs": [
        {
          "indexed": true,
          "internalType": "address",
          "name": "previousOwner",
          "type": "address"
        },
        {
          "indexed": true,
          "internalType": "address",
          "name": "newOwner",
          "type": "address"
        }
      ],
      "name": "OwnershipTransferred",
      "type": "event"
    },
    {
      "anonymous": false,
      "inputs": [
        {
          "indexed": true,
          "internalType": "address",
          "name": "collection",
          "type": "address"
        },
        {
          "indexed": false,
          "internalType": "uint256",
          "name": "newPrice",
          "type": "uint256"
        },
        {
          "indexed": false,
          "internalType": "uint256",
          "name": "timestamp",
          "type": "uint256"
        }
      ],
      "name": "PriceUpdated",
      "type": "event"
    },
    {
      "anonymous": false,
      "inputs": [
        {
          "indexed": true,
          "internalType": "address",
          "name": "updater",
          "type": "address"
        },
        {
          "indexed": false,
          "internalType": "bool",
          "name": "authorized",
          "type": "bool"
        }
      ],
      "name": "UpdaterAuthorized",
      "type": "event"
    },
    {
      "anonymous": false,
      "inputs": [
        {
          "indexed": true,
          "internalType": "address",
          "name": "collection",
          "type": "address"
        },
        {
          "indexed": true,
          "internalType": "uint256",
          "name": "tokenId",
          "type": "uint256"
        },
        {
          "indexed": false,
          "internalType": "uint256",
          "name": "score",
          "type": "uint256"
        }
      ],
      "name": "UtilityUpdated",
      "type": "event"
    },
    {
      "inputs": [],
      "name": "MAX_UTILITY_SCORE",
      "outputs": [
        {
          "internalType": "uint256",
          "name": "",
          "type": "uint256"
        }
      ],
      "stateMutability": "view",
      "type": "function"
    },
    {
      "inputs": [],
      "name": "MIN_UTILITY_SCORE",
      "outputs": [
        {
          "internalType": "uint256",
          "name": "",
          "type": "uint256"
        }
      ],
      "stateMutability": "view",
      "type": "function"
    },
    {
      "inputs": [],
      "name": "PRICE_STALENESS_THRESHOLD",
      "outputs": [
        {
          "internalType": "uint256",
          "name": "",
          "type": "uint256"
        }
      ],
      "stateMutability": "view",
      "type": "function"
    },
    {
      "inputs": [],
      "name": "UTILITY_STALENESS_THRESHOLD",
      "outputs": [
        {
          "internalType": "uint256",
          "name": "",
          "type": "uint256"
        }
      ],
      "stateMutability": "view",
      "type": "function"
    },
    {
      "inputs": [
        {
          "internalType": "address",
          "name": "updater",
          "type": "address"
        },
        {
          "internalType": "bool",
          "name": "authorized",
          "type": "bool"
        }
      ],
      "name": "authorizeUpdater",
      "outputs": [],
      "stateMutability": "nonpayable",
      "type": "function"
    },
    {
      "inputs": [
        {
          "internalType": "address",
          "name": "",
          "type": "address"
        }
      ],
      "name": "authorizedUpdaters",
      "outputs": [
        {
          "internalType": "bool",
          "name": "",
          "type": "bool"
        }
      ],
      "stateMutability": "view",
      "type": "function"
    },
    {
      "inputs": [
        {
          "internalType": "address[]",
          "name": "collections",
          "type": "address[]"
        },
        {
          "internalType": "uint256[]",
          "name": "prices",
          "type": "uint256[]"
        }
      ],
      "name": "batchUpdatePrices",
      "outputs": [],
      "stateMutability": "nonpayable",
      "type": "function"
    },
    {
      "inputs": [
        {
          "internalType": "address[]",
          "name": "collections",
          "type": "address[]"
        },
        {
          "internalType": "uint256[]",
          "name": "tokenIds",
          "type": "uint256[]"
        },
        {
          "internalType": "uint256[]",
          "name": "scores",
          "type": "uint256[]"
        }
      ],
      "name": "batchUpdateUtilityScores",
      "outputs": [],
      "stateMutability": "nonpayable",
      "type": "function"
    },
    {
      "inputs": [
        {
          "internalType": "address",
          "name": "",
          "type": "address"
        }
      ],
      "name": "collectionMetrics",
      "outputs": [
        {
          "internalType": "uint256",
          "name": "volume24h",
          "type": "uint256"
        },
        {
          "internalType": "uint256",
          "name": "holders",
          "type": "uint256"
        },
        {
          "internalType": "uint256",
          "name": "listingCount",
          "type": "uint256"
        },
        {
          "internalType": "uint256",
          "name": "avgHoldTime",
          "type": "uint256"
        },
        {
          "internalType": "bool",
          "name": "isGameFi",
          "type": "bool"
        }
      ],
      "stateMutability": "view",
      "type": "function"
    },
    {
      "inputs": [
        {
          "internalType": "address",
          "name": "collection",
          "type": "address"
        },
        {
          "internalType": "bool",
          "name": "paused",
          "type": "bool"
        }
      ],
      "name": "emergencyPause",
      "outputs": [],
      "stateMutability": "nonpayable",
      "type": "function"
    },
    {
      "inputs": [
        {
          "internalType": "address",
          "name": "collection",
          "type": "address"
        },
        {
          "internalType": "uint256",
          "name": "price",
          "type": "uint256"
        }
      ],
      "name": "emergencyUpdatePrice",
      "outputs": [],
      "stateMutability": "nonpayable",
      "type": "function"
    },
    {
      "inputs": [
        {
          "internalType": "address",
          "name": "collection",
          "type": "address"
        }
      ],
      "name": "getCollectionHealth",
      "outputs": [
        {
          "internalType": "uint256",
          "name": "healthScore",
          "type": "uint256"
        },
        {
          "internalType": "bool",
          "name": "isLiquid",
          "type": "bool"
        },
        {
          "internalType": "bool",
          "name": "hasRecentActivity",
          "type": "bool"
        }
      ],
      "stateMutability": "view",
      "type": "function"
    },
    {
      "inputs": [
        {
          "internalType": "address",
          "name": "collection",
          "type": "address"
        }
      ],
      "name": "getFloorPrice",
      "outputs": [
        {
          "internalType": "uint256",
          "name": "",
          "type": "uint256"
        }
      ],
      "stateMutability": "view",
      "type": "function"
    },
    {
      "inputs": [
        {
          "internalType": "address",
          "name": "collection",
          "type": "address"
        }
      ],
      "name": "getPriceInfo",
      "outputs": [
        {
          "internalType": "uint256",
          "name": "floorPrice",
          "type": "uint256"
        },
        {
          "internalType": "uint256",
          "name": "lastUpdate",
          "type": "uint256"
        },
        {
          "internalType": "bool",
          "name": "isActive",
          "type": "bool"
        },
        {
          "internalType": "bool",
          "name": "isStale",
          "type": "bool"
        }
      ],
      "stateMutability": "view",
      "type": "function"
    },
    {
      "inputs": [
        {
          "internalType": "address",
          "name": "collection",
          "type": "address"
        },
        {
          "internalType": "uint256",
          "name": "tokenId",
          "type": "uint256"
        }
      ],
      "name": "getUtilityInfo",
      "outputs": [
        {
          "internalType": "uint256",
          "name": "score",
          "type": "uint256"
        },
        {
          "internalType": "uint256",
          "name": "lastUpdate",
          "type": "uint256"
        },
        {
          "internalType": "bool",
          "name": "isActive",
          "type": "bool"
        },
        {
          "internalType": "bool",
          "name": "isStale",
          "type": "bool"
        }
      ],
      "stateMutability": "view",
      "type": "function"
    },
    {
      "inputs": [
        {
          "internalType": "address",
          "name": "collection",
          "type": "address"
        },
        {
          "internalType": "uint256",
          "name": "tokenId",
          "type": "uint256"
        }
      ],
      "name": "getUtilityScore",
      "outputs": [
        {
          "internalType": "uint256",
          "name": "",
          "type": "uint256"
        }
      ],
      "stateMutability": "view",
      "type": "function"
    },
    {
      "inputs": [
        {
          "internalType": "address",
          "name": "collection",
          "type": "address"
        },
        {
          "internalType": "uint256",
          "name": "tokenId",
          "type": "uint256"
        }
      ],
      "name": "isActiveAsset",
      "outputs": [
        {
          "internalType": "bool",
          "name": "",
          "type": "bool"
        }
      ],
      "stateMutability": "view",
      "type": "function"
    },
    {
      "inputs": [],
      "name": "owner",
      "outputs": [
        {
          "internalType": "address",
          "name": "",
          "type": "address"
        }
      ],
      "stateMutability": "view",
      "type": "function"
    },
    {
      "inputs": [
        {
          "internalType": "address",
          "name": "",
          "type": "address"
        }
      ],
      "name": "priceData",
      "outputs": [
        {
          "internalType": "uint256",
          "name": "floorPrice",
          "type": "uint256"
        },
        {
          "internalType": "uint256",
          "name": "lastUpdate",
          "type": "uint256"
        },
        {
          "internalType": "bool",
          "name": "isActive",
          "type": "bool"
        }
      ],
      "stateMutability": "view",
      "type": "function"
    },
    {
      "inputs": [],
      "name": "renounceOwnership",
      "outputs": [],
      "stateMutability": "nonpayable",
      "type": "function"
    },
    {
      "inputs": [
        {
          "internalType": "address",
          "name": "newOwner",
          "type": "address"
        }
      ],
      "name": "transferOwnership",
      "outputs": [],
      "stateMutability": "nonpayable",
      "type": "function"
    },
    {
      "inputs": [
        {
          "internalType": "address",
          "name": "collection",
          "type": "address"
        },
        {
          "internalType": "uint256",
          "name": "volume24h",
          "type": "uint256"
        },
        {
          "internalType": "uint256",
          "name": "holders",
          "type": "uint256"
        },
        {
          "internalType": "uint256",
          "name": "listingCount",
          "type": "uint256"
        },
        {
          "internalType": "uint256",
          "name": "avgHoldTime",
          "type": "uint256"
        },
        {
          "internalType": "bool",
          "name": "isGameFi",
          "type": "bool"
        }
      ],
      "name": "updateCollectionMetrics",
      "outputs": [],
      "stateMutability": "nonpayable",
      "type": "function"
    },
    {
      "inputs": [
        {
          "internalType": "address",
          "name": "collection",
          "type": "address"
        },
        {
          "internalType": "uint256",
          "name": "price",
          "type": "uint256"
        }
      ],
      "name": "updateFloorPrice",
      "outputs": [],
      "stateMutability": "nonpayable",
      "type": "function"
    },
    {
      "inputs": [
        {
          "internalType": "address",
          "name": "collection",
          "type": "address"
        },
        {
          "internalType": "uint256",
          "name": "tokenId",
          "type": "uint256"
        },
        {
          "internalType": "uint256",
          "name": "score",
          "type": "uint256"
        }
      ],
      "name": "updateUtilityScore",
      "outputs": [],
      "stateMutability": "nonpayable",
      "type": "function"
    },
    {
      "inputs": [
        {
          "internalType": "address",
          "name": "",
          "type": "address"
        },
        {
          "internalType": "uint256",
          "name": "",
          "type": "uint256"
        }
      ],
      "name": "utilityData",
      "outputs": [
        {
          "internalType": "uint256",
          "name": "score",
          "type": "uint256"
        },
        {
          "internalType": "uint256",
          "name": "lastUpdate",
          "type": "uint256"
        },
        {
          "internalType": "bool",
          "name": "isActive",
          "type": "bool"
        }
      ],
      "stateMutability": "view",
      "type": "function"
    }
  ],
  "bytecode": "0x608060405234801561001057600080fd5b50338061003757604051631e4fbdf760e01b81526000600482015260240160405180910390fd5b61004081610065565b506001808055336000908152600560205260409020805460ff191690911790556100b5565b600080546001600160a01b038381166001600160a01b0319831681178455604051919092169283917f8be0079c531659141344cd1fd0a4f28419497f9722a3daafe3b4186f6b6457e09190a35050565b6117cc806100c46000396000f3fe608060405234801561001057600080fd5b50600436106101735760003560e01c80638ff29cfe116100de578063c725a27011610097578063d045d39011610071578063d045d39014610425578063d5f12e231461042e578063f25b9caa14610441578063f2fde38b1461044a57600080fd5b8063c725a27014610376578063c7e8012714610389578063cab44b76146103f457600080fd5b80638ff29cfe146102ff578063a1e3bb0d14610322578063b0f1aaae1461032a578063b6f9c0c71461033d578063c17dcae514610350578063c3e214fc1461036357600080fd5b8063715018a611610130578063715018a6146102805780637437ba9f1461028857806375eb93f71461029b57806381234e8b146102ae5780638da5cb5b146102d15780638edbf436146102ec57600080fd5b80630ead1cac146101785780631ddb6ca0146101b85780631feef745146101e85780632fd8661f146101fe5780633705334f146102135780635b271eaa14610226575b600080fd5b61018b61018636600461145e565b61045d565b60408051948552602085019390935290151591830191909152151560608201526080015b60405180910390f35b6101cb6101c6366004611488565b6104fd565b6040805193845291151560208401521515908201526060016101af565b6101f0606481565b6040519081526020016101af565b61021161020c3660046114ba565b61070b565b005b61021161022136600461145e565b610773565b61026361023436600461145e565b600360209081526000928352604080842090915290825290208054600182015460029092015490919060ff1683565b6040805193845260208401929092521515908201526060016101af565b61021161088e565b61021161029636600461145e565b6108a2565b6102116102a9366004611539565b6108aa565b6102c16102bc36600461145e565b610b1f565b60405190151581526020016101af565b6000546040516001600160a01b0390911681526020016101af565b61018b6102fa366004611488565b610c4e565b6102c161030d366004611488565b60056020526000908152604090205460ff1681565b6101f0600181565b6101f061033836600461145e565b610caf565b61021161034b3660046115d3565b610da1565b61021161035e3660046114ba565b610f9f565b6101f0610371366004611488565b610fd4565b61021161038436600461163f565b61104d565b6103ca610397366004611488565b60046020819052600091825260409091208054600182015460028301546003840154939094015491939092909160ff1685565b6040805195865260208601949094529284019190915260608301521515608082015260a0016101af565b610263610402366004611488565b600260208190526000918252604090912080546001820154919092015460ff1683565b6101f061546081565b61021161043c366004611672565b611176565b6101f0610e1081565b610211610458366004611488565b61126c565b6001600160a01b038216600090815260036020908152604080832084845282528083208151606081018352815481526001820154938101939093526002015460ff161515908201819052829182918291906104c0576104bb876112aa565b6104c3565b80515b60208201516040830151919650945092508280156104f157506154608160200151426104ef91906116e0565b115b91505092959194509250565b6001600160a01b0381166000818152600460208181526040808420815160a0810183528154815260018083015482860152600280840154838601526003840154606080850191909152939096015460ff908116151560808401908152988852868652848820855194850186528054855291820154958401959095529094015490921615159082015292519192839283929190158061059d57508060400151155b156105b45760008060009450945094505050610704565b6000670de0b6b3a76400008360000151116105ef578251670de0b6b3a7640000906105e09060196116f3565b6105ea919061170a565b6105f2565b60195b905060006103e8846020015111610626576103e88460200151601961061791906116f3565b610621919061170a565b610629565b60195b90506000606485604001511161065b5760648560400151601961064c91906116f3565b610656919061170a565b61065e565b60195b9050600062278d008660600151116106945762278d008660600151601961068591906116f3565b61068f919061170a565b610697565b60195b905080826106a5858761172c565b6106af919061172c565b6106b9919061172c565b985060648911156106c957606498505b600a86604001511180156106e55750855167016345785d8a0000105b9750610e108560200151426106fa91906116e0565b1096505050505050505b9193909250565b6107136113c5565b6001600160a01b038216600081815260056020908152604091829020805460ff191685151590811790915591519182527f5c001b1d70af3e0a09eed53bc0588d57fec6d23196319ba29c6313eb3321273c91015b60405180910390a25050565b3360009081526005602052604090205460ff168061079b57506000546001600160a01b031633145b6107c05760405162461bcd60e51b81526004016107b79061173f565b60405180910390fd5b600081116108005760405162461bcd60e51b815260206004820152600d60248201526c496e76616c696420707269636560981b60448201526064016107b7565b6040805160608101825282815242602080830182815260018486018181526001600160a01b0389166000818152600280875290899020975188559351928701929092555194909101805460ff19169415159490941790935583518581529081019190915290917fb556fac599c3c70efb9ab1fa725ecace6c81cc48d1455f886607def065f3e0c09101610767565b6108966113c5565b6108a060006113f2565b565b6108006113c5565b3360009081526005602052604090205460ff16806108d257506000546001600160a01b031633145b6108ee5760405162461bcd60e51b81526004016107b79061173f565b84831480156108fc57508481145b6109405760405162461bcd60e51b8152602060048201526015602482015274082e4e4c2f240d8cadccee8d040dad2e6dac2e8c6d605b1b60448201526064016107b7565b60005b85811015610b1657600183838381811061095f5761095f611767565b905060200201351015801561098d5750606483838381811061098357610983611767565b9050602002013511155b15610b045760405180606001604052808484848181106109af576109af611767565b90506020020135815260200142815260200160011515815250600360008989858181106109de576109de611767565b90506020020160208101906109f39190611488565b6001600160a01b03166001600160a01b031681526020019081526020016000206000878785818110610a2757610a27611767565b602090810292909201358352508181019290925260409081016000208351815591830151600183015591909101516002909101805460ff1916911515919091179055848482818110610a7b57610a7b611767565b90506020020135878783818110610a9457610a94611767565b9050602002016020810190610aa99190611488565b6001600160a01b03167f20917235e7bea4aad730b0efefbeb2709e91eb026e8e234eff90c7b35d76070b858585818110610ae557610ae5611767565b90506020020135604051610afb91815260200190565b60405180910390a35b80610b0e8161177d565b915050610943565b50505050505050565b6001600160a01b03821660009081526002602081815260408084208151606081018352815481526001820154938101939093529092015460ff16158015928201929092529080610b7f5750610e10816020015142610b7d91906116e0565b115b15610b8e576000915050610c48565b6001600160a01b038416600090815260046020818152604092839020835160a081018552815481526001820154928101929092526002810154938201939093526003830154606082015291015460ff16151560808201819052610bf657600092505050610c48565b5050506001600160a01b03821660009081526003602090815260408083208484528252918290208251606081018452815481526001808301549382019390935260029091015460ff1615159201919091525b92915050565b6001600160a01b0381166000908152600260208181526040808420815160608101835281548082526001830154948201859052919094015460ff161515918401829052939192909190610e10610ca485426116e0565b119150509193509193565b6001600160a01b038216600090815260036020908152604080832084845282528083208151606081018352815481526001820154938101939093526002015460ff161515908201819052610d76576001600160a01b038416600090815260046020818152604092839020835160a081018552815481526001820154928101929092526002810154938201939093526003830154606082015291015460ff161580156080830152610d6b57610d62856112aa565b92505050610c48565b600192505050610c48565b615460816020015142610d8991906116e0565b1115610d99576001915050610c48565b519392505050565b3360009081526005602052604090205460ff1680610dc957506000546001600160a01b031633145b610de55760405162461bcd60e51b81526004016107b79061173f565b828114610e2c5760405162461bcd60e51b8152602060048201526015602482015274082e4e4c2f240d8cadccee8d040dad2e6dac2e8c6d605b1b60448201526064016107b7565b60005b83811015610f98576000838383818110610e4b57610e4b611767565b905060200201351115610f86576040518060600160405280848484818110610e7557610e75611767565b9050602002013581526020014281526020016001151581525060026000878785818110610ea457610ea4611767565b9050602002016020810190610eb99190611488565b6001600160a01b0316815260208082019290925260409081016000208351815591830151600183015591909101516002909101805460ff1916911515919091179055848482818110610f0d57610f0d611767565b9050602002016020810190610f229190611488565b6001600160a01b03167fb556fac599c3c70efb9ab1fa725ecace6c81cc48d1455f886607def065f3e0c0848484818110610f5e57610f5e611767565b9050602002013542604051610f7d929190918252602082015260400190565b60405180910390a25b80610f908161177d565b915050610e2f565b5050505050565b610fa76113c5565b6001600160a01b03909116600090815260026020819052604090912001805460ff19169115919091179055565b6001600160a01b03811660009081526002602081815260408084208151606081018352815481526001820154938101939093529092015460ff161515918101829052906110245750600092915050565b610e1081602001514261103791906116e0565b11156110465750600092915050565b5192915050565b3360009081526005602052604090205460ff168061107557506000546001600160a01b031633145b6110915760405162461bcd60e51b81526004016107b79061173f565b600181101580156110a3575060648111155b6110df5760405162461bcd60e51b815260206004820152600d60248201526c496e76616c69642073636f726560981b60448201526064016107b7565b6040805160608101825282815242602080830191825260018385018181526001600160a01b0389166000818152600385528781208a8252855287902095518655935191850191909155516002909301805460ff19169315159390931790925591518381528492917f20917235e7bea4aad730b0efefbeb2709e91eb026e8e234eff90c7b35d76070b910160405180910390a3505050565b3360009081526005602052604090205460ff168061119e57506000546001600160a01b031633145b6111ba5760405162461bcd60e51b81526004016107b79061173f565b6040805160a081018252868152602080820187815282840187815260608401878152861515608086019081526001600160a01b038d166000818152600480885290899020975188559451600188015592516002870155905160038601555193909101805460ff191693151593909317909255825188815290810187905290917f65c6078a6992b1e208a30a46a4943758854cc00a2ead235c985034879a8db3d9910160405180910390a2505050505050565b6112746113c5565b6001600160a01b03811661129e57604051631e4fbdf760e01b8152600060048201526024016107b7565b6112a7816113f2565b50565b6001600160a01b0381166000908152600460208181526040808420815160a08101835281548152600182015493810193909352600281015491830191909152600381015460608301529091015460ff161515608082018190526113105750600192915050565b6020810151601e9061138810156113335761132c81601461172c565b905061134f565b6103e88260200151111561134f5761134c81600a61172c565b90505b8151678ac7230489e8000010156113725761136b81600f61172c565b9050611391565b8151670de0b6b3a764000010156113915761138e81600561172c565b90505b6064826040015111156113ac576113a981600a61172c565b90505b606481116113ba57806113bd565b60645b949350505050565b6000546001600160a01b031633146108a05760405163118cdaa760e01b81523360048201526024016107b7565b600080546001600160a01b038381166001600160a01b0319831681178455604051919092169283917f8be0079c531659141344cd1fd0a4f28419497f9722a3daafe3b4186f6b6457e09190a35050565b80356001600160a01b038116811461145957600080fd5b919050565b6000806040838503121561147157600080fd5b61147a83611442565b946020939093013593505050565b60006020828403121561149a57600080fd5b6114a382611442565b9392505050565b8035801515811461145957600080fd5b600080604083850312156114cd57600080fd5b6114d683611442565b91506114e4602084016114aa565b90509250929050565b60008083601f8401126114ff57600080fd5b50813567ffffffffffffffff81111561151757600080fd5b6020830191508360208260051b850101111561153257600080fd5b9250929050565b6000806000806000806060878903121561155257600080fd5b863567ffffffffffffffff8082111561156a57600080fd5b6115768a838b016114ed565b9098509650602089013591508082111561158f57600080fd5b61159b8a838b016114ed565b909650945060408901359150808211156115b457600080fd5b506115c189828a016114ed565b979a9699509497509295939492505050565b600080600080604085870312156115e957600080fd5b843567ffffffffffffffff8082111561160157600080fd5b61160d888389016114ed565b9096509450602087013591508082111561162657600080fd5b50611633878288016114ed565b95989497509550505050565b60008060006060848603121561165457600080fd5b61165d84611442565b95602085013595506040909401359392505050565b60008060008060008060c0878903121561168b57600080fd5b61169487611442565b9550602087013594506040870135935060608701359250608087013591506116be60a088016114aa565b90509295509295509295565b634e487b7160e01b600052601160045260246000fd5b81810381811115610c4857610c486116ca565b8082028115828204841417610c4857610c486116ca565b60008261172757634e487b7160e01b600052601260045260246000fd5b500490565b80820180821115610c4857610c486116ca565b6020808252600e908201526d139bdd08185d5d1a1bdc9a5e995960921b604082015260600190565b634e487b7160e01b600052603260045260246000fd5b60006001820161178f5761178f6116ca565b506001019056fea2646970667358221220da2e8eacf36a0b0132fa49a9adc9c2fdd8afc5e1b3e17bedaf819c4f49660c4964736f6c63430008150033",
  "linkReferences": {},
  "deployedLinkReferences": {}
}