{
  "_format": "hh-sol-artifact-1",
  "contractName": "DPOTokenV3",
  "sourceName": "contracts/DPOTokenV3.sol",
  "abi": [
    {
      "inputs": [],
      "stateMutability": "nonpayable",
      "type": "constructor"
    },
    {
      "inputs": [
        {
          "internalType": "address",
          "name": "spender",
          "type": "address"
        },
        {
          "internalType": "uint256",
          "name": "allowance",
          "type": "uint256"
        },
        {
          "internalType": "uint256",
          "name": "needed",
          "type": "uint256"
        }
      ],
      "name": "ERC20InsufficientAllowance",
      "type": "error"
    },
    {
      "inputs": [
        {
          "internalType": "address",
          "name": "sender",
          "type": "address"
        },
        {
          "internalType": "uint256",
          "name": "balance",
          "type": "uint256"
        },
        {
          "internalType": "uint256",
          "name": "needed",
          "type": "uint256"
        }
      ],
      "name": "ERC20InsufficientBalance",
      "type": "error"
    },
    {
      "inputs": [
        {
          "internalType": "address",
          "name": "approver",
          "type": "address"
        }
      ],
      "name": "ERC20InvalidApprover",
      "type": "error"
    },
    {
      "inputs": [
        {
          "internalType": "address",
          "name": "receiver",
          "type": "address"
        }
      ],
      "name": "ERC20InvalidReceiver",
      "type": "error"
    },
    {
      "inputs": [
        {
          "internalType": "address",
          "name": "sender",
          "type": "address"
        }
      ],
      "name": "ERC20InvalidSender",
      "type": "error"
    },
    {
      "inputs": [
        {
          "internalType": "address",
          "name": "spender",
          "type": "address"
        }
      ],
      "name": "ERC20InvalidSpender",
      "type": "error"
    },
    {
      "inputs": [
        {
          "internalType": "address",
          "name": "owner",
          "type": "address"
        }
      ],
      "name": "OwnableInvalidOwner",
      "type": "error"
    },
    {
      "inputs": [
        {
          "internalType": "address",
          "name": "account",
          "type": "address"
        }
      ],
      "name": "OwnableUnauthorizedAccount",
      "type": "error"
    },
    {
      "anonymous": false,
      "inputs": [
        {
          "indexed": true,
          "internalType": "address",
          "name": "owner",
          "type": "address"
        },
        {
          "indexed": true,
          "internalType": "address",
          "name": "spender",
          "type": "address"
        },
        {
          "indexed": false,
          "internalType": "uint256",
          "name": "value",
          "type": "uint256"
        }
      ],
      "name": "Approval",
      "type": "event"
    },
    {
      "anonymous": false,
      "inputs": [
        {
          "indexed": true,
          "internalType": "address",
          "name": "user",
          "type": "address"
        },
        {
          "indexed": true,
          "internalType": "address",
          "name": "collection",
          "type": "address"
        },
        {
          "indexed": true,
          "internalType": "uint256",
          "name": "tokenId",
          "type": "uint256"
        },
        {
          "indexed": false,
          "internalType": "uint256",
          "name": "amount",
          "type": "uint256"
        }
      ],
      "name": "InterestClaimed",
      "type": "event"
    },
    {
      "anonymous": false,
      "inputs": [
        {
          "indexed": true,
          "internalType": "address",
          "name": "collection",
          "type": "address"
        },
        {
          "indexed": true,
          "internalType": "uint256",
          "name": "tokenId",
          "type": "uint256"
        },
        {
          "indexed": true,
          "internalType": "address",
          "name": "holder",
          "type": "address"
        },
        {
          "indexed": false,
          "internalType": "uint256",
          "name": "amount",
          "type": "uint256"
        }
      ],
      "name": "InterestDistributed",
      "type": "event"
    },
    {
      "anonymous": false,
      "inputs": [
        {
          "indexed": true,
          "internalType": "address",
          "name": "minter",
          "type": "address"
        }
      ],
      "name": "MinterAuthorized",
      "type": "event"
    },
    {
      "anonymous": false,
      "inputs": [
        {
          "indexed": true,
          "internalType": "address",
          "name": "user",
          "type": "address"
        },
        {
          "indexed": true,
          "internalType": "address",
          "name": "collection",
          "type": "address"
        },
        {
          "indexed": true,
          "internalType": "uint256",
          "name": "tokenId",
          "type": "uint256"
        },
        {
          "indexed": false,
          "internalType": "bool",
          "name": "isBuy",
          "type": "bool"
        },
        {
          "indexed": false,
          "internalType": "uint256",
          "name": "amount",
          "type": "uint256"
        },
        {
          "indexed": false,
          "internalType": "uint256",
          "name": "price",
          "type": "uint256"
        }
      ],
      "name": "OrderPlaced",
      "type": "event"
    },
    {
      "anonymous": false,
      "inputs": [
        {
          "indexed": true,
          "internalType": "address",
          "name": "previousOwner",
          "type": "address"
        },
        {
          "indexed": true,
          "internalType": "address",
          "name": "newOwner",
          "type": "address"
        }
      ],
      "name": "OwnershipTransferred",
      "type": "event"
    },
    {
      "anonymous": false,
      "inputs": [
        {
          "indexed": true,
          "internalType": "address",
          "name": "to",
          "type": "address"
        },
        {
          "indexed": false,
          "internalType": "uint256",
          "name": "amount",
          "type": "uint256"
        }
      ],
      "name": "TokensMinted",
      "type": "event"
    },
    {
      "anonymous": false,
      "inputs": [
        {
          "indexed": true,
          "internalType": "address",
          "name": "buyer",
          "type": "address"
        },
        {
          "indexed": true,
          "internalType": "address",
          "name": "seller",
          "type": "address"
        },
        {
          "indexed": true,
          "internalType": "address",
          "name": "collection",
          "type": "address"
        },
        {
          "indexed": false,
          "internalType": "uint256",
          "name": "tokenId",
          "type": "uint256"
        },
        {
          "indexed": false,
          "internalType": "uint256",
          "name": "amount",
          "type": "uint256"
        },
        {
          "indexed": false,
          "internalType": "uint256",
          "name": "price",
          "type": "uint256"
        }
      ],
      "name": "TradeExecuted",
      "type": "event"
    },
    {
      "anonymous": false,
      "inputs": [
        {
          "indexed": true,
          "internalType": "address",
          "name": "from",
          "type": "address"
        },
        {
          "indexed": true,
          "internalType": "address",
          "name": "to",
          "type": "address"
        },
        {
          "indexed": false,
          "internalType": "uint256",
          "name": "value",
          "type": "uint256"
        }
      ],
      "name": "Transfer",
      "type": "event"
    },
    {
      "inputs": [
        {
          "internalType": "address",
          "name": "owner",
          "type": "address"
        },
        {
          "internalType": "address",
          "name": "spender",
          "type": "address"
        }
      ],
      "name": "allowance",
      "outputs": [
        {
          "internalType": "uint256",
          "name": "",
          "type": "uint256"
        }
      ],
      "stateMutability": "view",
      "type": "function"
    },
    {
      "inputs": [
        {
          "internalType": "address",
          "name": "spender",
          "type": "address"
        },
        {
          "internalType": "uint256",
          "name": "value",
          "type": "uint256"
        }
      ],
      "name": "approve",
      "outputs": [
        {
          "internalType": "bool",
          "name": "",
          "type": "bool"
        }
      ],
      "stateMutability": "nonpayable",
      "type": "function"
    },
    {
      "inputs": [
        {
          "internalType": "address",
          "name": "minter",
          "type": "address"
        }
      ],
      "name": "authorizeMinter",
      "outputs": [],
      "stateMutability": "nonpayable",
      "type": "function"
    },
    {
      "inputs": [
        {
          "internalType": "address",
          "name": "",
          "type": "address"
        }
      ],
      "name": "authorizedMinters",
      "outputs": [
        {
          "internalType": "bool",
          "name": "",
          "type": "bool"
        }
      ],
      "stateMutability": "view",
      "type": "function"
    },
    {
      "inputs": [
        {
          "internalType": "address",
          "name": "account",
          "type": "address"
        }
      ],
      "name": "balanceOf",
      "outputs": [
        {
          "internalType": "uint256",
          "name": "",
          "type": "uint256"
        }
      ],
      "stateMutability": "view",
      "type": "function"
    },
    {
      "inputs": [
        {
          "internalType": "uint256",
          "name": "amount",
          "type": "uint256"
        }
      ],
      "name": "burn",
      "outputs": [],
      "stateMutability": "nonpayable",
      "type": "function"
    },
    {
      "inputs": [
        {
          "internalType": "address",
          "name": "user",
          "type": "address"
        },
        {
          "internalType": "address",
          "name": "collection",
          "type": "address"
        },
        {
          "internalType": "uint256",
          "name": "tokenId",
          "type": "uint256"
        }
      ],
      "name": "calculatePendingInterest",
      "outputs": [
        {
          "internalType": "uint256",
          "name": "",
          "type": "uint256"
        }
      ],
      "stateMutability": "view",
      "type": "function"
    },
    {
      "inputs": [
        {
          "internalType": "address",
          "name": "collection",
          "type": "address"
        },
        {
          "internalType": "uint256",
          "name": "tokenId",
          "type": "uint256"
        }
      ],
      "name": "claimInterest",
      "outputs": [],
      "stateMutability": "nonpayable",
      "type": "function"
    },
    {
      "inputs": [
        {
          "internalType": "address",
          "name": "",
          "type": "address"
        },
        {
          "internalType": "uint256",
          "name": "",
          "type": "uint256"
        },
        {
          "internalType": "address",
          "name": "",
          "type": "address"
        }
      ],
      "name": "claimableInterest",
      "outputs": [
        {
          "internalType": "uint256",
          "name": "",
          "type": "uint256"
        }
      ],
      "stateMutability": "view",
      "type": "function"
    },
    {
      "inputs": [],
      "name": "decimals",
      "outputs": [
        {
          "internalType": "uint8",
          "name": "",
          "type": "uint8"
        }
      ],
      "stateMutability": "view",
      "type": "function"
    },
    {
      "inputs": [
        {
          "internalType": "address",
          "name": "collection",
          "type": "address"
        },
        {
          "internalType": "uint256",
          "name": "tokenId",
          "type": "uint256"
        },
        {
          "internalType": "address",
          "name": "holder",
          "type": "address"
        },
        {
          "internalType": "uint256",
          "name": "amount",
          "type": "uint256"
        }
      ],
      "name": "distributeInterest",
      "outputs": [],
      "stateMutability": "payable",
      "type": "function"
    },
    {
      "inputs": [
        {
          "internalType": "address",
          "name": "to",
          "type": "address"
        },
        {
          "internalType": "uint256",
          "name": "amount",
          "type": "uint256"
        }
      ],
      "name": "mint",
      "outputs": [],
      "stateMutability": "nonpayable",
      "type": "function"
    },
    {
      "inputs": [
        {
          "internalType": "address",
          "name": "collection",
          "type": "address"
        },
        {
          "internalType": "uint256",
          "name": "tokenId",
          "type": "uint256"
        },
        {
          "internalType": "address",
          "name": "borrower",
          "type": "address"
        },
        {
          "internalType": "uint256",
          "name": "amount",
          "type": "uint256"
        }
      ],
      "name": "mintOnLoan",
      "outputs": [],
      "stateMutability": "nonpayable",
      "type": "function"
    },
    {
      "inputs": [],
      "name": "name",
      "outputs": [
        {
          "internalType": "string",
          "name": "",
          "type": "string"
        }
      ],
      "stateMutability": "view",
      "type": "function"
    },
    {
      "inputs": [
        {
          "internalType": "address",
          "name": "",
          "type": "address"
        },
        {
          "internalType": "uint256",
          "name": "",
          "type": "uint256"
        }
      ],
      "name": "nftTokenSupply",
      "outputs": [
        {
          "internalType": "uint256",
          "name": "",
          "type": "uint256"
        }
      ],
      "stateMutability": "view",
      "type": "function"
    },
    {
      "inputs": [],
      "name": "owner",
      "outputs": [
        {
          "internalType": "address",
          "name": "",
          "type": "address"
        }
      ],
      "stateMutability": "view",
      "type": "function"
    },
    {
      "inputs": [
        {
          "internalType": "address",
          "name": "collection",
          "type": "address"
        },
        {
          "internalType": "uint256",
          "name": "tokenId",
          "type": "uint256"
        },
        {
          "internalType": "uint256",
          "name": "amount",
          "type": "uint256"
        },
        {
          "internalType": "uint256",
          "name": "price",
          "type": "uint256"
        }
      ],
      "name": "placeBuyOrder",
      "outputs": [],
      "stateMutability": "payable",
      "type": "function"
    },
    {
      "inputs": [
        {
          "internalType": "address",
          "name": "collection",
          "type": "address"
        },
        {
          "internalType": "uint256",
          "name": "tokenId",
          "type": "uint256"
        },
        {
          "internalType": "uint256",
          "name": "amount",
          "type": "uint256"
        },
        {
          "internalType": "uint256",
          "name": "price",
          "type": "uint256"
        }
      ],
      "name": "placeSellOrder",
      "outputs": [],
      "stateMutability": "nonpayable",
      "type": "function"
    },
    {
      "inputs": [],
      "name": "renounceOwnership",
      "outputs": [],
      "stateMutability": "nonpayable",
      "type": "function"
    },
    {
      "inputs": [],
      "name": "symbol",
      "outputs": [
        {
          "internalType": "string",
          "name": "",
          "type": "string"
        }
      ],
      "stateMutability": "view",
      "type": "function"
    },
    {
      "inputs": [
        {
          "internalType": "address",
          "name": "",
          "type": "address"
        },
        {
          "internalType": "uint256",
          "name": "",
          "type": "uint256"
        },
        {
          "internalType": "address",
          "name": "",
          "type": "address"
        }
      ],
      "name": "tokenHoldings",
      "outputs": [
        {
          "internalType": "uint256",
          "name": "",
          "type": "uint256"
        }
      ],
      "stateMutability": "view",
      "type": "function"
    },
    {
      "inputs": [],
      "name": "totalSupply",
      "outputs": [
        {
          "internalType": "uint256",
          "name": "",
          "type": "uint256"
        }
      ],
      "stateMutability": "view",
      "type": "function"
    },
    {
      "inputs": [
        {
          "internalType": "address",
          "name": "to",
          "type": "address"
        },
        {
          "internalType": "uint256",
          "name": "value",
          "type": "uint256"
        }
      ],
      "name": "transfer",
      "outputs": [
        {
          "internalType": "bool",
          "name": "",
          "type": "bool"
        }
      ],
      "stateMutability": "nonpayable",
      "type": "function"
    },
    {
      "inputs": [
        {
          "internalType": "address",
          "name": "from",
          "type": "address"
        },
        {
          "internalType": "address",
          "name": "to",
          "type": "address"
        },
        {
          "internalType": "uint256",
          "name": "value",
          "type": "uint256"
        }
      ],
      "name": "transferFrom",
      "outputs": [
        {
          "internalType": "bool",
          "name": "",
          "type": "bool"
        }
      ],
      "stateMutability": "nonpayable",
      "type": "function"
    },
    {
      "inputs": [
        {
          "internalType": "address",
          "name": "newOwner",
          "type": "address"
        }
      ],
      "name": "transferOwnership",
      "outputs": [],
      "stateMutability": "nonpayable",
      "type": "function"
    },
    {
      "stateMutability": "payable",
      "type": "receive"
    }
  ],
  "bytecode": "0x60806040523480156200001157600080fd5b50336040518060400160405280601c81526020017f446976657273696669656420506f7274666f6c696f204f7074696f6e000000008152506040518060400160405280600381526020016244504f60e81b815250816003908162000076919062000348565b50600462000085828262000348565b5050506001600160a01b038116620000b857604051631e4fbdf760e01b8152600060048201526024015b60405180910390fd5b620000c381620000e0565b50620000da3369d3c21bcecceda100000062000132565b6200043c565b600580546001600160a01b038381166001600160a01b0319831681179093556040519116919082907f8be0079c531659141344cd1fd0a4f28419497f9722a3daafe3b4186f6b6457e090600090a35050565b6001600160a01b0382166200015e5760405163ec442f0560e01b815260006004820152602401620000af565b6200016c6000838362000170565b5050565b6001600160a01b0383166200019f57806002600082825462000193919062000414565b90915550620002139050565b6001600160a01b03831660009081526020819052604090205481811015620001f45760405163391434e360e21b81526001600160a01b03851660048201526024810182905260448101839052606401620000af565b6001600160a01b03841660009081526020819052604090209082900390555b6001600160a01b038216620002315760028054829003905562000250565b6001600160a01b03821660009081526020819052604090208054820190555b816001600160a01b0316836001600160a01b03167fddf252ad1be2c89b69c2b068fc378daa952ba7f163c4a11628f55a4df523b3ef836040516200029691815260200190565b60405180910390a3505050565b634e487b7160e01b600052604160045260246000fd5b600181811c90821680620002ce57607f821691505b602082108103620002ef57634e487b7160e01b600052602260045260246000fd5b50919050565b601f8211156200034357600081815260208120601f850160051c810160208610156200031e5750805b601f850160051c820191505b818110156200033f578281556001016200032a565b5050505b505050565b81516001600160401b03811115620003645762000364620002a3565b6200037c81620003758454620002b9565b84620002f5565b602080601f831160018114620003b457600084156200039b5750858301515b600019600386901b1c1916600185901b1785556200033f565b600085815260208120601f198616915b82811015620003e557888601518255948401946001909101908401620003c4565b5085821015620004045787850151600019600388901b60f8161c191681555b5050505050600190811b01905550565b808201808211156200043657634e487b7160e01b600052601160045260246000fd5b92915050565b6113ee806200044c6000396000f3fe60806040526004361061016a5760003560e01c80636a0f12fc116100d1578063988261d41161008a578063c9f16c1f11610064578063c9f16c1f14610484578063dd62ed3e146104d4578063ecd3ad241461051a578063f2fde38b1461053a57600080fd5b8063988261d4146103f6578063a9059cbb14610434578063aa2fe91b1461045457600080fd5b80636a0f12fc146103485780636f2842941461035b57806370a082311461036e578063715018a6146103a45780638da5cb5b146103b957806395d89b41146103e157600080fd5b8063313ce56711610123578063313ce5671461026e57806338fbe0c31461028a57806340c10f19146102aa57806342966c68146102ca57806355de2823146102ea57806368a7e30b1461032857600080fd5b806306fdde03146101765780630711b304146101a1578063095ea7b3146101e75780630c9848321461021757806318160ddd1461023957806323b872dd1461024e57600080fd5b3661017157005b600080fd5b34801561018257600080fd5b5061018b61055a565b6040516101989190611125565b60405180910390f35b3480156101ad57600080fd5b506101d96101bc36600461118f565b600860209081526000928352604080842090915290825290205481565b604051908152602001610198565b3480156101f357600080fd5b5061020761020236600461118f565b6105ec565b6040519015158152602001610198565b34801561022357600080fd5b506102376102323660046111b9565b610606565b005b34801561024557600080fd5b506002546101d9565b34801561025a57600080fd5b506102076102693660046111db565b61065a565b34801561027a57600080fd5b5060405160128152602001610198565b34801561029657600080fd5b506102376102a5366004611217565b61067e565b3480156102b657600080fd5b506102376102c536600461118f565b6107a5565b3480156102d657600080fd5b506102376102e536600461125b565b610863565b3480156102f657600080fd5b506101d9610305366004611274565b600760209081526000938452604080852082529284528284209052825290205481565b34801561033457600080fd5b5061023761034336600461118f565b610870565b610237610356366004611217565b610a02565b6102376103693660046112b0565b610adf565b34801561037a57600080fd5b506101d96103893660046111b9565b6001600160a01b031660009081526020819052604090205490565b3480156103b057600080fd5b50610237610c20565b3480156103c557600080fd5b506005546040516001600160a01b039091168152602001610198565b3480156103ed57600080fd5b5061018b610c34565b34801561040257600080fd5b506101d9610411366004611274565b600960209081526000938452604080852082529284528284209052825290205481565b34801561044057600080fd5b5061020761044f36600461118f565b610c43565b34801561046057600080fd5b5061020761046f3660046111b9565b60066020526000908152604090205460ff1681565b34801561049057600080fd5b506101d961049f3660046111db565b6001600160a01b0380831660009081526009602090815260408083208584528252808320938716835292905220549392505050565b3480156104e057600080fd5b506101d96104ef3660046112e9565b6001600160a01b03918216600090815260016020908152604080832093909416825291909152205490565b34801561052657600080fd5b506102376105353660046112b0565b610c51565b34801561054657600080fd5b506102376105553660046111b9565b610d11565b6060600380546105699061131c565b80601f01602080910402602001604051908101604052809291908181526020018280546105959061131c565b80156105e25780601f106105b7576101008083540402835291602001916105e2565b820191906000526020600020905b8154815290600101906020018083116105c557829003601f168201915b5050505050905090565b6000336105fa818585610d4c565b60019150505b92915050565b61060e610d59565b6001600160a01b038116600081815260066020526040808220805460ff19166001179055517f83b05b6735acd4b85e3bded8e72c851d1a87718f81e3c8e6f0c9d9a2baa88e469190a250565b600033610668858285610d86565b610673858585610e05565b506001949350505050565b3360009081526006602052604090205460ff166106db5760405162461bcd60e51b8152602060048201526016602482015275139bdd08185d5d1a1bdc9a5e9959081d1bc81b5a5b9d60521b60448201526064015b60405180910390fd5b6106e58282610e64565b6001600160a01b03808516600090815260076020908152604080832087845282528083209386168352929052908120805483929061072490849061136c565b90915550506001600160a01b03841660009081526008602090815260408083208684529091528120805483929061075c90849061136c565b90915550506040518181526001600160a01b038316907f3f2c9d57c068687834f0de942a9babb9e5acab57d516d3480a3c16ee165a42739060200160405180910390a250505050565b3360009081526006602052604090205460ff16806107cd57506005546001600160a01b031633145b6108125760405162461bcd60e51b8152602060048201526016602482015275139bdd08185d5d1a1bdc9a5e9959081d1bc81b5a5b9d60521b60448201526064016106d2565b61081c8282610e64565b816001600160a01b03167f3f2c9d57c068687834f0de942a9babb9e5acab57d516d3480a3c16ee165a42738260405161085791815260200190565b60405180910390a25050565b61086d3382610e9e565b50565b6001600160a01b0382166000908152600960209081526040808320848452825280832033845290915290205480156109fd576001600160a01b038316600090815260096020908152604080832085845282528083203384529091528120554781111561091e5760405162461bcd60e51b815260206004820152601d60248201527f496e73756666696369656e7420636f6e74726163742062616c616e636500000060448201526064016106d2565b604051600090339083908381818185875af1925050503d8060008114610960576040519150601f19603f3d011682016040523d82523d6000602084013e610965565b606091505b50509050806109ad5760405162461bcd60e51b8152602060048201526014602482015273111414d5881d1c985b9cd9995c8819985a5b195960621b60448201526064016106d2565b82846001600160a01b0316336001600160a01b03167f4c0ecda9d5ab6447bca5a2e5c178e6f336e59c526ab37a3071885c5e0c31bdf2856040516109f391815260200190565b60405180910390a4505b505050565b610a0a610d59565b80341015610a535760405162461bcd60e51b8152602060048201526016602482015275125b9cdd59999a58da595b9d08111414d5881cd95b9d60521b60448201526064016106d2565b6001600160a01b038085166000908152600960209081526040808320878452825280832093861683529290529081208054839290610a9290849061136c565b92505081905550816001600160a01b031683856001600160a01b03167fcd21153e8faa673d4c668e9e4165506a12f55f5d1d349c723b6407f8ab258dbb846040516109f391815260200190565b670de0b6b3a7640000610af2828461137f565b610afc9190611396565b341015610b425760405162461bcd60e51b8152602060048201526014602482015273125b9cdd59999a58da595b9d081c185e5b595b9d60621b60448201526064016106d2565b6001600160a01b0384166000908152600760209081526040808320868452825280832033845290915281208054849290610b7d90849061136c565b909155505060408051600181526020810184905290810182905283906001600160a01b0386169033907fd5644a59d9b490a06e4497163f7bb855c06879ded9e1a713f5e398a8bc0b92c39060600160405180910390a460408051848152602081018490529081018290526001600160a01b03851690339081907f6d2a49dc58cbd626bd59e1de8c53b7f89e2d4593ffa0c77aaadb93d227fb077a906060016109f3565b610c28610d59565b610c326000610ed4565b565b6060600480546105699061131c565b6000336105fa818585610e05565b6001600160a01b03841660009081526007602090815260408083208684528252808320338452909152902054821115610cc35760405162461bcd60e51b8152602060048201526014602482015273496e73756666696369656e742062616c616e636560601b60448201526064016106d2565b60408051600081526020810184905290810182905283906001600160a01b0386169033907fd5644a59d9b490a06e4497163f7bb855c06879ded9e1a713f5e398a8bc0b92c3906060016109f3565b610d19610d59565b6001600160a01b038116610d4357604051631e4fbdf760e01b8152600060048201526024016106d2565b61086d81610ed4565b6109fd8383836001610f26565b6005546001600160a01b03163314610c325760405163118cdaa760e01b81523360048201526024016106d2565b6001600160a01b03838116600090815260016020908152604080832093861683529290522054600019811015610dff5781811015610df057604051637dc7a0d960e11b81526001600160a01b038416600482015260248101829052604481018390526064016106d2565b610dff84848484036000610f26565b50505050565b6001600160a01b038316610e2f57604051634b637e8f60e11b8152600060048201526024016106d2565b6001600160a01b038216610e595760405163ec442f0560e01b8152600060048201526024016106d2565b6109fd838383610ffb565b6001600160a01b038216610e8e5760405163ec442f0560e01b8152600060048201526024016106d2565b610e9a60008383610ffb565b5050565b6001600160a01b038216610ec857604051634b637e8f60e11b8152600060048201526024016106d2565b610e9a82600083610ffb565b600580546001600160a01b038381166001600160a01b0319831681179093556040519116919082907f8be0079c531659141344cd1fd0a4f28419497f9722a3daafe3b4186f6b6457e090600090a35050565b6001600160a01b038416610f505760405163e602df0560e01b8152600060048201526024016106d2565b6001600160a01b038316610f7a57604051634a1406b160e11b8152600060048201526024016106d2565b6001600160a01b0380851660009081526001602090815260408083209387168352929052208290558015610dff57826001600160a01b0316846001600160a01b03167f8c5be1e5ebec7d5bd14f71427d1e84f3dd0314c0f7b2291e5b200ac8c7c3b92584604051610fed91815260200190565b60405180910390a350505050565b6001600160a01b03831661102657806002600082825461101b919061136c565b909155506110989050565b6001600160a01b038316600090815260208190526040902054818110156110795760405163391434e360e21b81526001600160a01b038516600482015260248101829052604481018390526064016106d2565b6001600160a01b03841660009081526020819052604090209082900390555b6001600160a01b0382166110b4576002805482900390556110d3565b6001600160a01b03821660009081526020819052604090208054820190555b816001600160a01b0316836001600160a01b03167fddf252ad1be2c89b69c2b068fc378daa952ba7f163c4a11628f55a4df523b3ef8360405161111891815260200190565b60405180910390a3505050565b600060208083528351808285015260005b8181101561115257858101830151858201604001528201611136565b506000604082860101526040601f19601f8301168501019250505092915050565b80356001600160a01b038116811461118a57600080fd5b919050565b600080604083850312156111a257600080fd5b6111ab83611173565b946020939093013593505050565b6000602082840312156111cb57600080fd5b6111d482611173565b9392505050565b6000806000606084860312156111f057600080fd5b6111f984611173565b925061120760208501611173565b9150604084013590509250925092565b6000806000806080858703121561122d57600080fd5b61123685611173565b93506020850135925061124b60408601611173565b9396929550929360600135925050565b60006020828403121561126d57600080fd5b5035919050565b60008060006060848603121561128957600080fd5b61129284611173565b9250602084013591506112a760408501611173565b90509250925092565b600080600080608085870312156112c657600080fd5b6112cf85611173565b966020860135965060408601359560600135945092505050565b600080604083850312156112fc57600080fd5b61130583611173565b915061131360208401611173565b90509250929050565b600181811c9082168061133057607f821691505b60208210810361135057634e487b7160e01b600052602260045260246000fd5b50919050565b634e487b7160e01b600052601160045260246000fd5b8082018082111561060057610600611356565b808202811582820484141761060057610600611356565b6000826113b357634e487b7160e01b600052601260045260246000fd5b50049056fea2646970667358221220c4f343e3a5dfd44ad47c53acbe2c5745cf51a44f671ff58a24543a9a2489126864736f6c63430008150033",
  "linkReferences": {},
  "deployedLinkReferences": {}
}