{
  "_format": "hh-sol-artifact-1",
  "contractName": "MosaicalGovernance",
  "sourceName": "contracts/MosaicalGovernance.sol",
  "abi": [
    {
      "inputs": [
        {
          "internalType": "address",
          "name": "_governanceToken",
          "type": "address"
        }
      ],
      "stateMutability": "nonpayable",
      "type": "constructor"
    },
    {
      "inputs": [
        {
          "internalType": "address",
          "name": "owner",
          "type": "address"
        }
      ],
      "name": "OwnableInvalidOwner",
      "type": "error"
    },
    {
      "inputs": [
        {
          "internalType": "address",
          "name": "account",
          "type": "address"
        }
      ],
      "name": "OwnableUnauthorizedAccount",
      "type": "error"
    },
    {
      "inputs": [],
      "name": "ReentrancyGuardReentrantCall",
      "type": "error"
    },
    {
      "anonymous": false,
      "inputs": [
        {
          "indexed": true,
          "internalType": "address",
          "name": "delegator",
          "type": "address"
        },
        {
          "indexed": true,
          "internalType": "address",
          "name": "newDelegate",
          "type": "address"
        }
      ],
      "name": "DelegateChanged",
      "type": "event"
    },
    {
      "anonymous": false,
      "inputs": [
        {
          "indexed": true,
          "internalType": "address",
          "name": "previousOwner",
          "type": "address"
        },
        {
          "indexed": true,
          "internalType": "address",
          "name": "newOwner",
          "type": "address"
        }
      ],
      "name": "OwnershipTransferred",
      "type": "event"
    },
    {
      "anonymous": false,
      "inputs": [
        {
          "indexed": true,
          "internalType": "uint256",
          "name": "proposalId",
          "type": "uint256"
        }
      ],
      "name": "ProposalCancelled",
      "type": "event"
    },
    {
      "anonymous": false,
      "inputs": [
        {
          "indexed": true,
          "internalType": "uint256",
          "name": "proposalId",
          "type": "uint256"
        },
        {
          "indexed": true,
          "internalType": "address",
          "name": "proposer",
          "type": "address"
        },
        {
          "indexed": false,
          "internalType": "string",
          "name": "title",
          "type": "string"
        },
        {
          "indexed": false,
          "internalType": "uint256",
          "name": "startTime",
          "type": "uint256"
        },
        {
          "indexed": false,
          "internalType": "uint256",
          "name": "endTime",
          "type": "uint256"
        }
      ],
      "name": "ProposalCreated",
      "type": "event"
    },
    {
      "anonymous": false,
      "inputs": [
        {
          "indexed": true,
          "internalType": "uint256",
          "name": "proposalId",
          "type": "uint256"
        }
      ],
      "name": "ProposalExecuted",
      "type": "event"
    },
    {
      "anonymous": false,
      "inputs": [
        {
          "indexed": true,
          "internalType": "uint256",
          "name": "proposalId",
          "type": "uint256"
        },
        {
          "indexed": true,
          "internalType": "address",
          "name": "voter",
          "type": "address"
        },
        {
          "indexed": false,
          "internalType": "enum MosaicalGovernance.VoteChoice",
          "name": "choice",
          "type": "uint8"
        },
        {
          "indexed": false,
          "internalType": "uint256",
          "name": "weight",
          "type": "uint256"
        }
      ],
      "name": "VoteCast",
      "type": "event"
    },
    {
      "inputs": [],
      "name": "APPROVAL_THRESHOLD",
      "outputs": [
        {
          "internalType": "uint256",
          "name": "",
          "type": "uint256"
        }
      ],
      "stateMutability": "view",
      "type": "function"
    },
    {
      "inputs": [],
      "name": "MIN_PROPOSAL_THRESHOLD",
      "outputs": [
        {
          "internalType": "uint256",
          "name": "",
          "type": "uint256"
        }
      ],
      "stateMutability": "view",
      "type": "function"
    },
    {
      "inputs": [],
      "name": "QUORUM_PERCENTAGE",
      "outputs": [
        {
          "internalType": "uint256",
          "name": "",
          "type": "uint256"
        }
      ],
      "stateMutability": "view",
      "type": "function"
    },
    {
      "inputs": [],
      "name": "VOTING_DURATION",
      "outputs": [
        {
          "internalType": "uint256",
          "name": "",
          "type": "uint256"
        }
      ],
      "stateMutability": "view",
      "type": "function"
    },
    {
      "inputs": [
        {
          "internalType": "uint256",
          "name": "proposalId",
          "type": "uint256"
        }
      ],
      "name": "cancelProposal",
      "outputs": [],
      "stateMutability": "nonpayable",
      "type": "function"
    },
    {
      "inputs": [
        {
          "internalType": "string",
          "name": "title",
          "type": "string"
        },
        {
          "internalType": "string",
          "name": "description",
          "type": "string"
        },
        {
          "internalType": "enum MosaicalGovernance.ProposalType",
          "name": "proposalType",
          "type": "uint8"
        },
        {
          "internalType": "bytes",
          "name": "proposalData",
          "type": "bytes"
        }
      ],
      "name": "createProposal",
      "outputs": [
        {
          "internalType": "uint256",
          "name": "",
          "type": "uint256"
        }
      ],
      "stateMutability": "nonpayable",
      "type": "function"
    },
    {
      "inputs": [
        {
          "internalType": "address",
          "name": "delegatee",
          "type": "address"
        }
      ],
      "name": "delegate",
      "outputs": [],
      "stateMutability": "nonpayable",
      "type": "function"
    },
    {
      "inputs": [
        {
          "internalType": "address",
          "name": "",
          "type": "address"
        }
      ],
      "name": "delegatedVotes",
      "outputs": [
        {
          "internalType": "uint256",
          "name": "",
          "type": "uint256"
        }
      ],
      "stateMutability": "view",
      "type": "function"
    },
    {
      "inputs": [
        {
          "internalType": "address",
          "name": "",
          "type": "address"
        }
      ],
      "name": "delegates",
      "outputs": [
        {
          "internalType": "address",
          "name": "",
          "type": "address"
        }
      ],
      "stateMutability": "view",
      "type": "function"
    },
    {
      "inputs": [],
      "name": "emergencyPause",
      "outputs": [],
      "stateMutability": "nonpayable",
      "type": "function"
    },
    {
      "inputs": [
        {
          "internalType": "uint256",
          "name": "proposalId",
          "type": "uint256"
        }
      ],
      "name": "executeProposal",
      "outputs": [],
      "stateMutability": "nonpayable",
      "type": "function"
    },
    {
      "inputs": [
        {
          "internalType": "uint256",
          "name": "proposalId",
          "type": "uint256"
        }
      ],
      "name": "getProposal",
      "outputs": [
        {
          "internalType": "uint256",
          "name": "id",
          "type": "uint256"
        },
        {
          "internalType": "address",
          "name": "proposer",
          "type": "address"
        },
        {
          "internalType": "string",
          "name": "title",
          "type": "string"
        },
        {
          "internalType": "string",
          "name": "description",
          "type": "string"
        },
        {
          "internalType": "uint256",
          "name": "startTime",
          "type": "uint256"
        },
        {
          "internalType": "uint256",
          "name": "endTime",
          "type": "uint256"
        },
        {
          "internalType": "uint256",
          "name": "forVotes",
          "type": "uint256"
        },
        {
          "internalType": "uint256",
          "name": "againstVotes",
          "type": "uint256"
        },
        {
          "internalType": "uint256",
          "name": "abstainVotes",
          "type": "uint256"
        },
        {
          "internalType": "bool",
          "name": "executed",
          "type": "bool"
        },
        {
          "internalType": "bool",
          "name": "cancelled",
          "type": "bool"
        },
        {
          "internalType": "enum MosaicalGovernance.ProposalType",
          "name": "proposalType",
          "type": "uint8"
        }
      ],
      "stateMutability": "view",
      "type": "function"
    },
    {
      "inputs": [
        {
          "internalType": "uint256",
          "name": "proposalId",
          "type": "uint256"
        }
      ],
      "name": "getProposalState",
      "outputs": [
        {
          "internalType": "string",
          "name": "",
          "type": "string"
        }
      ],
      "stateMutability": "view",
      "type": "function"
    },
    {
      "inputs": [
        {
          "internalType": "uint256",
          "name": "proposalId",
          "type": "uint256"
        },
        {
          "internalType": "address",
          "name": "user",
          "type": "address"
        }
      ],
      "name": "getUserVote",
      "outputs": [
        {
          "internalType": "bool",
          "name": "hasVoted",
          "type": "bool"
        },
        {
          "internalType": "enum MosaicalGovernance.VoteChoice",
          "name": "choice",
          "type": "uint8"
        },
        {
          "internalType": "uint256",
          "name": "weight",
          "type": "uint256"
        }
      ],
      "stateMutability": "view",
      "type": "function"
    },
    {
      "inputs": [
        {
          "internalType": "address",
          "name": "account",
          "type": "address"
        }
      ],
      "name": "getVotingPower",
      "outputs": [
        {
          "internalType": "uint256",
          "name": "",
          "type": "uint256"
        }
      ],
      "stateMutability": "view",
      "type": "function"
    },
    {
      "inputs": [],
      "name": "governanceToken",
      "outputs": [
        {
          "internalType": "contract IERC20",
          "name": "",
          "type": "address"
        }
      ],
      "stateMutability": "view",
      "type": "function"
    },
    {
      "inputs": [],
      "name": "owner",
      "outputs": [
        {
          "internalType": "address",
          "name": "",
          "type": "address"
        }
      ],
      "stateMutability": "view",
      "type": "function"
    },
    {
      "inputs": [],
      "name": "proposalCount",
      "outputs": [
        {
          "internalType": "uint256",
          "name": "",
          "type": "uint256"
        }
      ],
      "stateMutability": "view",
      "type": "function"
    },
    {
      "inputs": [
        {
          "internalType": "uint256",
          "name": "",
          "type": "uint256"
        }
      ],
      "name": "proposals",
      "outputs": [
        {
          "internalType": "uint256",
          "name": "id",
          "type": "uint256"
        },
        {
          "internalType": "address",
          "name": "proposer",
          "type": "address"
        },
        {
          "internalType": "string",
          "name": "title",
          "type": "string"
        },
        {
          "internalType": "string",
          "name": "description",
          "type": "string"
        },
        {
          "internalType": "uint256",
          "name": "startTime",
          "type": "uint256"
        },
        {
          "internalType": "uint256",
          "name": "endTime",
          "type": "uint256"
        },
        {
          "internalType": "uint256",
          "name": "forVotes",
          "type": "uint256"
        },
        {
          "internalType": "uint256",
          "name": "againstVotes",
          "type": "uint256"
        },
        {
          "internalType": "uint256",
          "name": "abstainVotes",
          "type": "uint256"
        },
        {
          "internalType": "bool",
          "name": "executed",
          "type": "bool"
        },
        {
          "internalType": "bool",
          "name": "cancelled",
          "type": "bool"
        },
        {
          "internalType": "enum MosaicalGovernance.ProposalType",
          "name": "proposalType",
          "type": "uint8"
        },
        {
          "internalType": "bytes",
          "name": "proposalData",
          "type": "bytes"
        }
      ],
      "stateMutability": "view",
      "type": "function"
    },
    {
      "inputs": [],
      "name": "renounceOwnership",
      "outputs": [],
      "stateMutability": "nonpayable",
      "type": "function"
    },
    {
      "inputs": [
        {
          "internalType": "address",
          "name": "newOwner",
          "type": "address"
        }
      ],
      "name": "transferOwnership",
      "outputs": [],
      "stateMutability": "nonpayable",
      "type": "function"
    },
    {
      "inputs": [
        {
          "internalType": "uint256",
          "name": "newVotingDuration",
          "type": "uint256"
        },
        {
          "internalType": "uint256",
          "name": "newMinProposalThreshold",
          "type": "uint256"
        },
        {
          "internalType": "uint256",
          "name": "newQuorumPercentage",
          "type": "uint256"
        },
        {
          "internalType": "uint256",
          "name": "newApprovalThreshold",
          "type": "uint256"
        }
      ],
      "name": "updateVotingParameters",
      "outputs": [],
      "stateMutability": "nonpayable",
      "type": "function"
    },
    {
      "inputs": [
        {
          "internalType": "uint256",
          "name": "proposalId",
          "type": "uint256"
        },
        {
          "internalType": "enum MosaicalGovernance.VoteChoice",
          "name": "choice",
          "type": "uint8"
        }
      ],
      "name": "vote",
      "outputs": [],
      "stateMutability": "nonpayable",
      "type": "function"
    },
    {
      "inputs": [
        {
          "internalType": "uint256",
          "name": "",
          "type": "uint256"
        },
        {
          "internalType": "address",
          "name": "",
          "type": "address"
        }
      ],
      "name": "votes",
      "outputs": [
        {
          "internalType": "bool",
          "name": "hasVoted",
          "type": "bool"
        },
        {
          "internalType": "enum MosaicalGovernance.VoteChoice",
          "name": "choice",
          "type": "uint8"
        },
        {
          "internalType": "uint256",
          "name": "weight",
          "type": "uint256"
        }
      ],
      "stateMutability": "view",
      "type": "function"
    }
  ],
  "bytecode": "0x60806040523480156200001157600080fd5b50604051620026a1380380620026a18339810160408190526200003491620000e1565b33806200005b57604051631e4fbdf760e01b81526000600482015260240160405180910390fd5b620000668162000091565b5060018055600280546001600160a01b0319166001600160a01b039290921691909117905562000113565b600080546001600160a01b038381166001600160a01b0319831681178455604051919092169283917f8be0079c531659141344cd1fd0a4f28419497f9722a3daafe3b4186f6b6457e09190a35050565b600060208284031215620000f457600080fd5b81516001600160a01b03811681146200010c57600080fd5b9392505050565b61257e80620001236000396000f3fe608060405234801561001057600080fd5b50600436106101585760003560e01c8063943e8216116100c3578063d364d4d41161007c578063d364d4d414610345578063da35c66414610365578063e0a8f6f51461036e578063ee8a7c1514610381578063f2fde38b14610389578063f96dae0a1461039c57600080fd5b8063943e821614610298578063a438d208146102ab578063bac7c890146102b5578063bb4d4436146102c8578063c7f758a8146102db578063d23254b41461030657600080fd5b80635c19a95c116101155780635c19a95c1461022857806360f827bf1461023b578063715018a61461024e578063791f5d23146102565780638da5cb5b146102675780639080936f1461027857600080fd5b8063013cf08b1461015d57806303c7881a146101925780630d61b519146101b45780633ab34290146101c957806351858e27146101df578063587cde1e146101e7575b600080fd5b61017061016b366004611ea1565b6103af565b6040516101899d9c9b9a99989796959493929190611f2a565b60405180910390f35b6101a56101a0366004611ff4565b6105c2565b60405161018993929190612030565b6101c76101c2366004611ea1565b610658565b005b6101d1603381565b604051908152602001610189565b6101c7610ba9565b6102106101f5366004612054565b6006602052600090815260409020546001600160a01b031681565b6040516001600160a01b039091168152602001610189565b6101c7610236366004612054565b610bb3565b6101d1610249366004612122565b610d2c565b6101c7611018565b6101d169152d02c7e14af680000081565b6000546001600160a01b0316610210565b61028b610286366004611ea1565b61102a565b60405161018991906121d7565b6101c76102a63660046121ea565b6114e9565b6101d16203f48081565b6101c76102c336600461221e565b611803565b6101d16102d6366004612054565b611811565b6102ee6102e9366004611ea1565b6118a4565b6040516101899c9b9a99989796959493929190612250565b6101a5610314366004611ff4565b60046020908152600092835260408084209091529082529020805460019091015460ff808316926101009004169083565b6101d1610353366004612054565b60056020526000908152604090205481565b6101d160075481565b6101c761037c366004611ea1565b611bb3565b6101d1600a81565b6101c7610397366004612054565b611d29565b600254610210906001600160a01b031681565b60036020526000908152604090208054600182015460028301805492936001600160a01b03909216926103e1906122e2565b80601f016020809104026020016040519081016040528092919081815260200182805461040d906122e2565b801561045a5780601f1061042f5761010080835404028352916020019161045a565b820191906000526020600020905b81548152906001019060200180831161043d57829003601f168201915b50505050509080600301805461046f906122e2565b80601f016020809104026020016040519081016040528092919081815260200182805461049b906122e2565b80156104e85780601f106104bd576101008083540402835291602001916104e8565b820191906000526020600020905b8154815290600101906020018083116104cb57829003601f168201915b505050600484015460058501546006860154600787015460088801546009890154600a8a018054999a96999598509396509194909360ff808416946101008504821694620100009004909116929161053f906122e2565b80601f016020809104026020016040519081016040528092919081815260200182805461056b906122e2565b80156105b85780601f1061058d576101008083540402835291602001916105b8565b820191906000526020600020905b81548152906001019060200180831161059b57829003601f168201915b505050505090508d565b60008281526004602090815260408083206001600160a01b03851684528252808320815160608101909252805460ff80821615158452859485948594909390929184019161010090910416600281111561061e5761061e611f00565b600281111561062f5761062f611f00565b815260019190910154602091820152815190820151604090920151909891975095509350505050565b610660611d64565b600081815260036020526040812080549091036106985760405162461bcd60e51b815260040161068f9061231c565b60405180910390fd5b806005015442116106e15760405162461bcd60e51b8152602060048201526013602482015272566f74696e67207374696c6c2061637469766560681b604482015260640161068f565b600981015460ff16156107295760405162461bcd60e51b815260206004820152601060248201526f105b1c9958591e48195e1958dd5d195960821b604482015260640161068f565b6009810154610100900460ff16156107785760405162461bcd60e51b8152602060048201526012602482015271141c9bdc1bdcd85b0818d85b98d95b1b195960721b604482015260640161068f565b60008160080154826007015483600601546107939190612369565b61079d9190612369565b90506000600260009054906101000a90046001600160a01b03166001600160a01b03166318160ddd6040518163ffffffff1660e01b8152600401602060405180830381865afa1580156107f4573d6000803e3d6000fd5b505050506040513d601f19601f82011682018060405250810190610818919061237c565b905060006064610829600a84612395565b61083391906123ac565b90508083101561087a5760405162461bcd60e51b8152602060048201526012602482015271145d5bdc9d5b481b9bdd081c995858da195960721b604482015260640161068f565b600684015460078501546000906108919083612369565b90506033816108a1846064612395565b6108ab91906123ac565b10156108f15760405162461bcd60e51b8152602060048201526015602482015274141c9bdc1bdcd85b081b9bdd08185c1c1c9bdd9959605a1b604482015260640161068f565b60098601805460ff19166001908117909155604080516101a08101825288548152918801546001600160a01b03166020830152600288018054610b6c93928a929084019161093e906122e2565b80601f016020809104026020016040519081016040528092919081815260200182805461096a906122e2565b80156109b75780601f1061098c576101008083540402835291602001916109b7565b820191906000526020600020905b81548152906001019060200180831161099a57829003601f168201915b505050505081526020016003820180546109d0906122e2565b80601f01602080910402602001604051908101604052809291908181526020018280546109fc906122e2565b8015610a495780601f10610a1e57610100808354040283529160200191610a49565b820191906000526020600020905b815481529060010190602001808311610a2c57829003601f168201915b50505091835250506004828101546020830152600583015460408301526006830154606083015260078301546080830152600883015460a0830152600983015460ff808216151560c08501526101008083048216151560e086015290930192620100009091041690811115610ac057610ac0611f00565b6004811115610ad157610ad1611f00565b8152602001600a82018054610ae5906122e2565b80601f0160208091040260200160405190810160405280929190818152602001828054610b11906122e2565b8015610b5e5780601f10610b3357610100808354040283529160200191610b5e565b820191906000526020600020905b815481529060010190602001808311610b4157829003601f168201915b505050505081525050611d8e565b60405187907f712ae1383f79ac853f8d882153778e0260ef8f03b504e2866e0593e04d2b291f90600090a2505050505050610ba660018055565b50565b610bb1611e24565b565b336000818152600660205260408082205460025491516370a0823160e01b815260048101949094526001600160a01b03908116939116906370a0823190602401602060405180830381865afa158015610c10573d6000803e3d6000fd5b505050506040513d601f19601f82011682018060405250810190610c34919061237c565b90506001600160a01b03821615610c83576001600160a01b038216600090815260056020526040902054610c699082906123ce565b6001600160a01b0383166000908152600560205260409020555b33600090815260066020526040902080546001600160a01b0319166001600160a01b03851690811790915515610cf1576001600160a01b038316600090815260056020526040902054610cd7908290612369565b6001600160a01b0384166000908152600560205260409020555b6040516001600160a01b0384169033907fef9fc1dee6010109e6e3b21e51d44028e246dbad8a5a71ea192a30b19e1f457f90600090a3505050565b600069152d02c7e14af6800000610d4233611811565b1015610d905760405162461bcd60e51b815260206004820152601960248201527f496e73756666696369656e7420766f74696e6720706f77657200000000000000604482015260640161068f565b6000855111610dcf5760405162461bcd60e51b815260206004820152600b60248201526a456d707479207469746c6560a81b604482015260640161068f565b6000845111610e145760405162461bcd60e51b815260206004820152601160248201527022b6b83a3c903232b9b1b934b83a34b7b760791b604482015260640161068f565b60078054906000610e24836123e1565b919050555060006007549050604051806101a00160405280828152602001336001600160a01b031681526020018781526020018681526020014281526020016203f48042610e729190612369565b8152602001600081526020016000815260200160008152602001600015158152602001600015158152602001856004811115610eb057610eb0611f00565b8152602090810185905260008381526003825260409081902083518155918301516001830180546001600160a01b0319166001600160a01b039092169190911790558201516002820190610f049082612448565b5060608201516003820190610f199082612448565b50608082015160048281019190915560a0830151600583015560c0830151600683015560e0830151600783015561010080840151600884015561012084015160098401805461014087015161ffff1990911692151561ff00191692909217911515909202178082556101608501519262ff0000199091169062010000908490811115610fa757610fa7611f00565b0217905550610180820151600a820190610fc19082612448565b503391508290507f6c98a8c940418b35614f0cd02412d5c9606faff474cbb6cdd6640ba5d1a9f06b8842610ff86203f48082612369565b60405161100793929190612508565b60405180910390a395945050505050565b611020611e24565b610bb16000611e51565b600081815260036020908152604080832081516101a0810183528154815260018201546001600160a01b031693810193909352600281018054606095949384019190611075906122e2565b80601f01602080910402602001604051908101604052809291908181526020018280546110a1906122e2565b80156110ee5780601f106110c3576101008083540402835291602001916110ee565b820191906000526020600020905b8154815290600101906020018083116110d157829003601f168201915b50505050508152602001600382018054611107906122e2565b80601f0160208091040260200160405190810160405280929190818152602001828054611133906122e2565b80156111805780601f1061115557610100808354040283529160200191611180565b820191906000526020600020905b81548152906001019060200180831161116357829003601f168201915b50505091835250506004828101546020830152600583015460408301526006830154606083015260078301546080830152600883015460a0830152600983015460ff808216151560c08501526101008083048216151560e0860152909301926201000090910416908111156111f7576111f7611f00565b600481111561120857611208611f00565b8152602001600a8201805461121c906122e2565b80601f0160208091040260200160405190810160405280929190818152602001828054611248906122e2565b80156112955780601f1061126a57610100808354040283529160200191611295565b820191906000526020600020905b81548152906001019060200180831161127857829003601f168201915b505050505081525050905080600001516000036112d557505060408051808201909152600b81526a139bdb915e1a5cdd195b9d60aa1b6020820152919050565b8061014001511561130757505060408051808201909152600981526810d85b98d95b1b195960ba1b6020820152919050565b80610120015115611338575050604080518082019091526008815267115e1958dd5d195960c21b6020820152919050565b8060a00151421161136757505060408051808201909152600681526541637469766560d01b6020820152919050565b60008161010001518260e001518360c001516113839190612369565b61138d9190612369565b90506000600260009054906101000a90046001600160a01b03166001600160a01b03166318160ddd6040518163ffffffff1660e01b8152600401602060405180830381865afa1580156113e4573d6000803e3d6000fd5b505050506040513d601f19601f82011682018060405250810190611408919061237c565b905060006064611419600a84612395565b61142391906123ac565b90508083101561145457505060408051808201909152600681526511985a5b195960d21b6020820152949350505050565b60c084015160e085015160009061146b9083612369565b905080158061148f5750603381611483846064612395565b61148d91906123ac565b105b156114bd57505060408051808201909152600681526511985a5b195960d21b60208201529695505050505050565b505060408051808201909152600981526814dd58d8d95959195960ba1b60208201529695505050505050565b6114f1611d64565b600082815260036020526040812080549091036115205760405162461bcd60e51b815260040161068f9061231c565b80600401544210156115695760405162461bcd60e51b8152602060048201526012602482015271159bdd1a5b99c81b9bdd081cdd185c9d195960721b604482015260640161068f565b80600501544211156115ac5760405162461bcd60e51b815260206004820152600c60248201526b159bdd1a5b99c8195b99195960a21b604482015260640161068f565b600981015460ff16156116015760405162461bcd60e51b815260206004820152601960248201527f50726f706f73616c20616c726561647920657865637574656400000000000000604482015260640161068f565b6009810154610100900460ff16156116505760405162461bcd60e51b8152602060048201526012602482015271141c9bdc1bdcd85b0818d85b98d95b1b195960721b604482015260640161068f565b60008381526004602090815260408083203384529091529020805460ff16156116ab5760405162461bcd60e51b815260206004820152600d60248201526c105b1c9958591e481d9bdd1959609a1b604482015260640161068f565b60006116b633611811565b9050600081116116fa5760405162461bcd60e51b815260206004820152600f60248201526e2737903b37ba34b733903837bbb2b960891b604482015260640161068f565b8154600160ff198216811784558591849161ffff199091161761010083600281111561172857611728611f00565b0217905550600180830182905584600281111561174757611747611f00565b036117665780836006015461175c9190612369565b60068401556117af565b600084600281111561177a5761177a611f00565b036117995780836007015461178f9190612369565b60078401556117af565b8083600801546117a99190612369565b60088401555b336001600160a01b0316857fb83d25c6a5d258561330739951487acb4bd09ba5190b5d32c4f261817d90679286846040516117eb92919061252d565b60405180910390a35050506117ff60018055565b5050565b61180b611e24565b50505050565b6001600160a01b038181166000818152600560205260408082205460025491516370a0823160e01b81526004810194909452919391929116906370a0823190602401602060405180830381865afa158015611870573d6000803e3d6000fd5b505050506040513d601f19601f82011682018060405250810190611894919061237c565b61189e9190612369565b92915050565b6000806060806000806000806000806000806000600360008f8152602001908152602001600020604051806101a0016040529081600082015481526020016001820160009054906101000a90046001600160a01b03166001600160a01b03166001600160a01b03168152602001600282018054611920906122e2565b80601f016020809104026020016040519081016040528092919081815260200182805461194c906122e2565b80156119995780601f1061196e57610100808354040283529160200191611999565b820191906000526020600020905b81548152906001019060200180831161197c57829003601f168201915b505050505081526020016003820180546119b2906122e2565b80601f01602080910402602001604051908101604052809291908181526020018280546119de906122e2565b8015611a2b5780601f10611a0057610100808354040283529160200191611a2b565b820191906000526020600020905b815481529060010190602001808311611a0e57829003601f168201915b50505091835250506004828101546020830152600583015460408301526006830154606083015260078301546080830152600883015460a0830152600983015460ff808216151560c08501526101008083048216151560e086015290930192620100009091041690811115611aa257611aa2611f00565b6004811115611ab357611ab3611f00565b8152602001600a82018054611ac7906122e2565b80601f0160208091040260200160405190810160405280929190818152602001828054611af3906122e2565b8015611b405780601f10611b1557610100808354040283529160200191611b40565b820191906000526020600020905b815481529060010190602001808311611b2357829003601f168201915b5050505050815250509050806000015181602001518260400151836060015184608001518560a001518660c001518760e001518861010001518961012001518a61014001518b61016001519c509c509c509c509c509c509c509c509c509c509c509c505091939597999b5091939597999b565b60008181526003602052604081208054909103611be25760405162461bcd60e51b815260040161068f9061231c565b60018101546001600160a01b0316331480611c0757506000546001600160a01b031633145b611c535760405162461bcd60e51b815260206004820152601860248201527f4e6f7420617574686f72697a656420746f2063616e63656c0000000000000000604482015260640161068f565b600981015460ff1615611c9b5760405162461bcd60e51b815260206004820152601060248201526f105b1c9958591e48195e1958dd5d195960821b604482015260640161068f565b6009810154610100900460ff1615611ce95760405162461bcd60e51b8152602060048201526011602482015270105b1c9958591e4818d85b98d95b1b1959607a1b604482015260640161068f565b60098101805461ff00191661010017905560405182907f416e669c63d9a3a5e36ee7cc7e2104b8db28ccd286aa18966e98fa230c73b08c90600090a25050565b611d31611e24565b6001600160a01b038116611d5b57604051631e4fbdf760e01b81526000600482015260240161068f565b610ba681611e51565b600260015403611d8757604051633ee5aeb560e01b815260040160405180910390fd5b6002600155565b60008161016001516004811115611da757611da7611f00565b14610ba65760018161016001516004811115611dc557611dc5611f00565b14610ba65760028161016001516004811115611de357611de3611f00565b14610ba65760038161016001516004811115611e0157611e01611f00565b14610ba65760048161016001516004811115611e1f57611e1f611f00565b505050565b6000546001600160a01b03163314610bb15760405163118cdaa760e01b815233600482015260240161068f565b600080546001600160a01b038381166001600160a01b0319831681178455604051919092169283917f8be0079c531659141344cd1fd0a4f28419497f9722a3daafe3b4186f6b6457e09190a35050565b600060208284031215611eb357600080fd5b5035919050565b6000815180845260005b81811015611ee057602081850181015186830182015201611ec4565b506000602082860101526020601f19601f83011685010191505092915050565b634e487b7160e01b600052602160045260246000fd5b60058110611f2657611f26611f00565b9052565b8d81526001600160a01b038d1660208201526101a060408201819052600090611f558382018f611eba565b90508281036060840152611f69818e611eba565b90508b60808401528a60a08401528960c08401528860e084015287610100840152611f9961012084018815159052565b851515610140840152611fb0610160840186611f16565b828103610180840152611fc38185611eba565b9150509e9d5050505050505050505050505050565b80356001600160a01b0381168114611fef57600080fd5b919050565b6000806040838503121561200757600080fd5b8235915061201760208401611fd8565b90509250929050565b60038110611f2657611f26611f00565b8315158152606081016120466020830185612020565b826040830152949350505050565b60006020828403121561206657600080fd5b61206f82611fd8565b9392505050565b634e487b7160e01b600052604160045260246000fd5b600067ffffffffffffffff808411156120a7576120a7612076565b604051601f8501601f19908116603f011681019082821181831017156120cf576120cf612076565b816040528093508581528686860111156120e857600080fd5b858560208301376000602087830101525050509392505050565b600082601f83011261211357600080fd5b61206f8383356020850161208c565b6000806000806080858703121561213857600080fd5b843567ffffffffffffffff8082111561215057600080fd5b61215c88838901612102565b9550602087013591508082111561217257600080fd5b61217e88838901612102565b9450604087013591506005821061219457600080fd5b909250606086013590808211156121aa57600080fd5b508501601f810187136121bc57600080fd5b6121cb8782356020840161208c565b91505092959194509250565b60208152600061206f6020830184611eba565b600080604083850312156121fd57600080fd5b8235915060208301356003811061221357600080fd5b809150509250929050565b6000806000806080858703121561223457600080fd5b5050823594602084013594506040840135936060013592509050565b8c81526001600160a01b038c1660208201526101806040820181905260009061227b8382018e611eba565b9050828103606084015261228f818d611eba565b9150508960808301528860a08301528760c08301528660e0830152856101008301528415156101208301528315156101408301526122d1610160830184611f16565b9d9c50505050505050505050505050565b600181811c908216806122f657607f821691505b60208210810361231657634e487b7160e01b600052602260045260246000fd5b50919050565b60208082526017908201527f50726f706f73616c20646f6573206e6f74206578697374000000000000000000604082015260600190565b634e487b7160e01b600052601160045260246000fd5b8082018082111561189e5761189e612353565b60006020828403121561238e57600080fd5b5051919050565b808202811582820484141761189e5761189e612353565b6000826123c957634e487b7160e01b600052601260045260246000fd5b500490565b8181038181111561189e5761189e612353565b6000600182016123f3576123f3612353565b5060010190565b601f821115611e1f57600081815260208120601f850160051c810160208610156124215750805b601f850160051c820191505b818110156124405782815560010161242d565b505050505050565b815167ffffffffffffffff81111561246257612462612076565b6124768161247084546122e2565b846123fa565b602080601f8311600181146124ab57600084156124935750858301515b600019600386901b1c1916600185901b178555612440565b600085815260208120601f198616915b828110156124da578886015182559484019460019091019084016124bb565b50858210156124f85787850151600019600388901b60f8161c191681555b5050505050600190811b01905550565b60608152600061251b6060830186611eba565b60208301949094525060400152919050565b6040810161253b8285612020565b826020830152939250505056fea264697066735822122027031bb17419dcdfe9153b030f5ca71b70118f9fb5533669cf9df3ead122d09764736f6c63430008150033",
  "linkReferences": {},
  "deployedLinkReferences": {}
}